{
  "contractName": "AuctionHouse",
  "abi": [
    {
      "constant": true,
      "inputs": [
        {
          "name": "",
          "type": "uint256"
        }
      ],
      "name": "auctions",
      "outputs": [
        {
          "name": "",
          "type": "address"
        }
      ],
      "payable": false,
      "stateMutability": "view",
      "type": "function"
    },
    {
      "constant": true,
      "inputs": [],
      "name": "num_auctions",
      "outputs": [
        {
          "name": "",
          "type": "uint256"
        }
      ],
      "payable": false,
      "stateMutability": "view",
      "type": "function"
    },
    {
      "inputs": [],
      "payable": false,
      "stateMutability": "nonpayable",
      "type": "constructor"
    },
    {
      "anonymous": false,
      "inputs": [
        {
          "indexed": false,
          "name": "_type",
          "type": "string"
        },
        {
          "indexed": false,
          "name": "_address",
          "type": "address"
        }
      ],
      "name": "newAuctionAvailable",
      "type": "event"
    },
    {
      "constant": false,
      "inputs": [
        {
          "name": "_itemName",
          "type": "string"
        },
        {
          "name": "_reservePrice",
          "type": "uint256"
        },
        {
          "name": "_initialPrice",
          "type": "uint256"
        },
        {
          "name": "_strategy",
          "type": "address"
        }
      ],
      "name": "newDutch",
      "outputs": [],
      "payable": true,
      "stateMutability": "payable",
      "type": "function"
    },
    {
      "constant": false,
      "inputs": [
        {
          "name": "_itemName",
          "type": "string"
        },
        {
          "name": "_reservePrice",
          "type": "uint256"
        },
        {
          "name": "_min_deposit",
          "type": "uint256"
        },
        {
          "name": "_commitment_len",
          "type": "uint256"
        },
        {
          "name": "_withdrawal_len",
          "type": "uint256"
        },
        {
          "name": "_opening_len",
          "type": "uint256"
        }
      ],
      "name": "newVickrey",
      "outputs": [],
      "payable": true,
      "stateMutability": "payable",
      "type": "function"
    },
    {
      "constant": false,
      "inputs": [],
      "name": "getFees",
      "outputs": [],
      "payable": false,
      "stateMutability": "nonpayable",
      "type": "function"
    }
  ],
  "bytecode": "0x6080604052662386f26fc1000060005534801561001b57600080fd5b50600380546001600160a01b03191633179055612b058061003d6000396000f3fe60806040526004361061004a5760003560e01c8063571a26a01461004f57806357f36193146100955780636f0cf9a4146101545780639370c1641461017b578063db8d55f114610235575b600080fd5b34801561005b57600080fd5b506100796004803603602081101561007257600080fd5b503561024a565b604080516001600160a01b039092168252519081900360200190f35b610152600480360360c08110156100ab57600080fd5b8101906020810181356401000000008111156100c657600080fd5b8201836020820111156100d857600080fd5b803590602001918460018302840111640100000000831117156100fa57600080fd5b91908080601f0160208091040260200160405190810160405280939291908181526020018383808284376000920191909152509295505082359350505060208101359060408101359060608101359060800135610271565b005b34801561016057600080fd5b5061016961048a565b60408051918252519081900360200190f35b6101526004803603608081101561019157600080fd5b8101906020810181356401000000008111156101ac57600080fd5b8201836020820111156101be57600080fd5b803590602001918460018302840111640100000000831117156101e057600080fd5b91908080601f01602080910402602001604051908101604052809392919081815260200183838082843760009201919091525092955050823593505050602081013590604001356001600160a01b0316610490565b34801561024157600080fd5b506101526106a7565b6001818154811061025757fe5b6000918252602090912001546001600160a01b0316905081565b60005434146102ca5760408051600160e51b62461bcd02815260206004820152601b60248201527f506c656173652073656e64206120636f72726563742076616c75650000000000604482015290519081900360640190fd5b6000600360009054906101000a90046001600160a01b0316338888888888886040516102f5906106fb565b80896001600160a01b03166001600160a01b03168152602001886001600160a01b03166001600160a01b0316815260200180602001878152602001868152602001858152602001848152602001838152602001828103825288818151815260200191508051906020019080838360005b8381101561037d578181015183820152602001610365565b50505050905090810190601f1680156103aa5780820380516001836020036101000a031916815260200191505b509950505050505050505050604051809103906000f0801580156103d2573d6000803e3d6000fd5b5060018054808201825560008290527fb10e2d527612073b26eecdfd717e6a320cf44b4afac2b0732d9fcbe2b7fa0cf60180546001600160a01b0384166001600160a01b0319909116811790915560028054909201909155604080516020810192909252808252600782820152600160c81b665669636b726579026060830152519192507fbd89ca29a9c5ddb927f92cb1ccde38d5d135cfb597fcde3ecf20529ab97ef54b919081900360800190a150505050505050565b60025481565b60005434146104e95760408051600160e51b62461bcd02815260206004820152601b60248201527f506c656173652073656e64206120636f72726563742076616c75650000000000604482015290519081900360640190fd5b6000600360009054906101000a90046001600160a01b0316338686868660405161051290610708565b80876001600160a01b03166001600160a01b03168152602001866001600160a01b03166001600160a01b0316815260200180602001858152602001848152602001836001600160a01b03166001600160a01b03168152602001828103825286818151815260200191508051906020019080838360005b838110156105a0578181015183820152602001610588565b50505050905090810190601f1680156105cd5780820380516001836020036101000a031916815260200191505b50975050505050505050604051809103906000f0801580156105f3573d6000803e3d6000fd5b5060018054808201825560008290527fb10e2d527612073b26eecdfd717e6a320cf44b4afac2b0732d9fcbe2b7fa0cf60180546001600160a01b0384166001600160a01b0319909116811790915560028054909201909155604080516020810192909252808252600582820152600160db1b64088eae8c6d026060830152519192507fbd89ca29a9c5ddb927f92cb1ccde38d5d135cfb597fcde3ecf20529ab97ef54b919081900360800190a15050505050565b6003546001600160a01b031633146106be57600080fd5b6003546040516001600160a01b0390911690303180156108fc02916000818181858888f193505050501580156106f8573d6000803e3d6000fd5b50565b6116a08061071683390190565b610d2480611db68339019056fe60806040526011805460ff191660011790553480156200001e57600080fd5b50604051620016a0380380620016a083398101806040526101008110156200004557600080fd5b81516020830151604084018051929491938201926401000000008111156200006c57600080fd5b820160208101848111156200008057600080fd5b81516401000000008111828201871017156200009b57600080fd5b5050602082015160408301516060840151608085015160a0909501519396509194509290918462000118576040517f08c379a000000000000000000000000000000000000000000000000000000000815260040180806020018281038252602a81526020018062001676602a913960400191505060405180910390fd5b8484101562000173576040517f08c379a0000000000000000000000000000000000000000000000000000000008152600401808060200182810382526034815260200180620015a66034913960400191505060405180910390fd5b60008311620001ce576040517f08c379a0000000000000000000000000000000000000000000000000000000008152600401808060200182810382526035815260200180620015da6035913960400191505060405180910390fd5b6000821162000229576040517f08c379a0000000000000000000000000000000000000000000000000000000008152600401808060200182810382526035815260200180620016416035913960400191505060405180910390fd5b6000811162000284576040517f08c379a00000000000000000000000000000000000000000000000000000000081526004018080602001828103825260328152602001806200160f6032913960400191505060405180910390fd5b600180546001600160a01b03808b166001600160a01b03199283161790925560028054928a16929091169190911790558551620002c99060039060208901906200033d565b506040805180820190915260078082527f5669636b72657900000000000000000000000000000000000000000000000000602090920191825262000310916000916200033d565b506007805460ff19169055600994909455600a92909255600b55600c55600d5550504360085550620003e2565b828054600181600116156101000203166002900490600052602060002090601f016020900481019282601f106200038057805160ff1916838001178555620003b0565b82800160010185558215620003b0579182015b82811115620003b057825182559160200191906001019062000393565b50620003be929150620003c2565b5090565b620003df91905b80821115620003be5760008155600101620003c9565b90565b6111b480620003f26000396000f3fe6080604052600436106100865760003560e01c8063b1c9fe6e11610059578063b1c9fe6e14610220578063bc2f8dd814610259578063d3b3f73a1461026e578063d4e932921461028b578063fef06efa146102a057610086565b80634bb278f31461008b578063605fed87146100a25780637284e416146100b7578063957bb1e014610203575b600080fd5b34801561009757600080fd5b506100a06102b5565b005b3480156100ae57600080fd5b506100a06104f6565b3480156100c357600080fd5b506100cc610631565b6040518080602001886001600160a01b03166001600160a01b03168152602001876001600160a01b03166001600160a01b0316815260200180602001868152602001856001600160a01b03166001600160a01b0316815260200184815260200183810383528a818151815260200191508051906020019080838360005b83811015610161578181015183820152602001610149565b50505050905090810190601f16801561018e5780820380516001836020036101000a031916815260200191505b50838103825287518152875160209182019189019080838360005b838110156101c15781810151838201526020016101a9565b50505050905090810190601f1680156101ee5780820380516001836020036101000a031916815260200191505b50995050505050505050505060405180910390f35b6100a06004803603602081101561021957600080fd5b5035610790565b34801561022c57600080fd5b5061023561095b565b6040518082600481111561024557fe5b60ff16815260200191505060405180910390f35b34801561026557600080fd5b506100a0610964565b6100a06004803603602081101561028457600080fd5b5035610a85565b34801561029757600080fd5b506100a0610cc4565b3480156102ac57600080fd5b506100a0610eb6565b6001546001600160a01b0316331461030157604051600160e51b62461bcd02815260040180806020018281038252602c81526020018061106d602c913960400191505060405180910390fd5b600360075460ff16600481111561031457fe5b1461035357604051600160e51b62461bcd02815260040180806020018281038252602e8152602001806110bf602e913960400191505060405180910390fd5b600d5460085443031161039a57604051600160e51b62461bcd02815260040180806020018281038252602281526020018061113e6022913960400191505060405180910390fd5b600e546001600160a01b03161561044257600e54600580546001600160a01b0319166001600160a01b0390921691821790556010546006819055600f5460405191900380156108fc02916000818181858888f19350505050158015610403573d6000803e3d6000fd5b506002546006546040516001600160a01b039092169181156108fc0291906000818181858888f19350505050158015610440573d6000803e3d6000fd5b505b60078054600460ff19909116179055600554600654604080516001600160a01b0390931683526020830191909152303182820181905290517364db1b94a0304e4c27de2e758b2f962d09dfe503927ff695043c68d141bf7715a80c7c181a21c469846be41ff74c864e392ba7b9c888919081900360600190a16040516001600160a01b0383169082156108fc029083906000818181858888f193505050501580156104f1573d6000803e3d6000fd5b505050565b6001546001600160a01b0316331461054257604051600160e51b62461bcd02815260040180806020018281038252602c81526020018061106d602c913960400191505060405180910390fd5b600060075460ff16600481111561055557fe5b1461059457604051600160e51b62461bcd0281526004018080602001828103825260388152602001806110356038913960400191505060405180910390fd5b60146008544303116105f05760408051600160e51b62461bcd02815260206004820181905260248201527f477261636520706572696f64206973206e6f742066696e697368656420796574604482015290519081900360640190fd5b6007805460ff191660011790554360048190556008556040517fee2679bc2382e067cc3dfbda872852b5b1702b359c1fd6ce272c32dae5bacabf90600090a1565b60008054604080516020601f600260001961010060018816150201909516949094049384018190048102820181019092528281529183918301828280156106b95780601f1061068e576101008083540402835291602001916106b9565b820191906000526020600020905b81548152906001019060200180831161069c57829003601f168201915b505050600180850154600280870154600388018054604080516020601f60001999851615610100029990990190931695909504968701829004820285018201905285845297986001600160a01b03948516989290941696509294509092908301828280156107685780601f1061073d57610100808354040283529160200191610768565b820191906000526020600020905b81548152906001019060200180831161074b57829003601f168201915b5050505060048301546005840154600690940154929390926001600160a01b03909116915087565b600160075460ff1660048111156107a357fe5b146107f85760408051600160e51b62461bcd02815260206004820181905260248201527f436f6d6d69746d656e74207068617365206e6f74207374617274656420796574604482015290519081900360640190fd5b600b54600854430311156108565760408051600160e51b62461bcd02815260206004820152601960248201527f436f6d6d69746d656e7420706861736520697320656e64656400000000000000604482015290519081900360640190fd5b600a543410156108b05760408051600160e51b62461bcd02815260206004820181905260248201527f5468652076616c75652073656e74206973206e6f742073756666696369656e74604482015290519081900360640190fd5b33600090815260126020526040902054156109155760408051600160e51b62461bcd02815260206004820181905260248201527f596f75206861766520616c7265616479207375626d6974746564206120626964604482015290519081900360640190fd5b61091d61100d565b604080820192835234606083019081523360009081526012602090815292902083518155919092015160018201559151600283015551600390910155565b60075460ff1681565b6001546001600160a01b031633146109b057604051600160e51b62461bcd02815260040180806020018281038252602c81526020018061106d602c913960400191505060405180910390fd5b600160075460ff1660048111156109c357fe5b14610a0257604051600160e51b62461bcd02815260040180806020018281038252602c8152602001806110ed602c913960400191505060405180910390fd5b600b54600854430311610a4957604051600160e51b62461bcd0281526004018080602001828103825260258152602001806111196025913960400191505060405180910390fd5b6007805460ff19166002179055436008556040517f06179f52469b624307d1134ccac6737f9f8297dc742b397eb14de0530dd596fa90600090a1565b600360075460ff166004811115610a9857fe5b14610aed5760408051600160e51b62461bcd02815260206004820152601d60248201527f4f70656e696e67207068617365206e6f74207374617274656420796574000000604482015290519081900360640190fd5b600d5460085443031115610b4b5760408051600160e51b62461bcd02815260206004820152601660248201527f4f70656e696e6720706861736520697320656e64656400000000000000000000604482015290519081900360640190fd5b33600090815260126020908152604091829020600201548251348184015280840185905283518082038501815260609091019093528251929091019190912014610bcf5760408051600160e51b62461bcd02815260206004820152600a6024820152600160b31b690aee4dedcce40d0c2e6d02604482015290519081900360640190fd5b33600081815260126020526040808220600301805490839055905190929183156108fc02918491818181858888f19350505050158015610c13573d6000803e3d6000fd5b5033600090815260126020526040902034815560010182905560115460ff1615610c6257600e80546001600160a01b0319163317905534600f556009546010556011805460ff19169055610cc0565b600f54341115610ca757600f546010819055600e54610c8c916001600160a01b0390911690610fd7565b600e80546001600160a01b0319163317905534600f55610cc0565b601054341115610cb657346010555b610cc03334610fd7565b5050565b600260075460ff166004811115610cd757fe5b14610d2c5760408051600160e51b62461bcd02815260206004820181905260248201527f5769746864726177616c207068617365206e6f74207374617274656420796574604482015290519081900360640190fd5b600c5460085443031115610d8a5760408051600160e51b62461bcd02815260206004820152601960248201527f5769746864726177616c20706861736520697320656e64656400000000000000604482015290519081900360640190fd5b33600090815260126020526040902060030154610ddb57604051600160e51b62461bcd0281526004018080602001828103825260268152602001806110996026913960400191505060405180910390fd5b33600081815260126020908152604080832060030180549390556002805482519586529084049285018390526001600160a01b0316848201529181900360608401819052915190927fe77c6e79e6e29c0d19961bf68269998b3c16b233806a74107f327a31c5eca329919081900360800190a16002546040516001600160a01b039091169082156108fc029083906000818181858888f19350505050158015610e88573d6000803e3d6000fd5b50604051339083156108fc029084906000818181858888f193505050501580156104f1573d6000803e3d6000fd5b6001546001600160a01b03163314610f0257604051600160e51b62461bcd02815260040180806020018281038252602c81526020018061106d602c913960400191505060405180910390fd5b600260075460ff166004811115610f1557fe5b14610f5457604051600160e51b62461bcd0281526004018080602001828103825260298152602001806111606029913960400191505060405180910390fd5b600c54600854430311610f9b57604051600160e51b62461bcd0281526004018080602001828103825260258152602001806111196025913960400191505060405180910390fd5b6007805460ff19166003179055436008556040517fe884e87cca623860f1ac029c5df020e7b7ebad72eab657701673da4cf3e9046190600090a1565b6040516001600160a01b0383169082156108fc029083906000818181858888f193505050501580156104f1573d6000803e3d6000fd5b6040805160808101825260008082526020820181905291810182905260608101919091529056fe546f2061637469766174652074686520636f6e747261637420796f75206d75737420626520696e2074686520477261636520506572696f644f6e6c79207468652061756374696f6e20686f7573652063616e2072756e20746869732066756e6374696f6e596f7520646f6e2774206861766520616e79206465706f73697420746f207769746864726177596f752063616e27742066696e616c697a652074686520636f6e7472616374206265666f7265206f70656e696e67596f752063616e2774207374617274207769746864726177616c206265666f726520636f6d6d69746d656e74436f6d6d69746d656e7420706572696f64206973206e6f742066696e6973686564207965744f70656e696e6720706572696f64206973206e6f742066696e697368656420796574596f752063616e2774207374617274206f70656e696e67206265666f7265207769746864726177616ca165627a7a72305820f2a2beaac76524521d6ddda01d744f1cf16db241eec56c9eb1b223efa67089b70029546865206465706f7369742073686f756c642062652067726561746572207468616e207468652072657365727665207072696365546865206c656e676874206f6620636f6d6d69746d656e742073686f756c642062652067726561746572207468616e207a65726f2e546865206c656e676874206f66206f70656e696e672073686f756c642062652067726561746572207468616e207a65726f2e546865206c656e676874206f66207769746864726177616c2073686f756c642062652067726561746572207468616e207a65726f2e526573657276652070726963652073686f756c642062652067726561746572207468616e207a65726f2e608060405234801561001057600080fd5b50604051610d24380380610d24833981018060405260c081101561003357600080fd5b815160208301516040840180519294919382019264010000000081111561005957600080fd5b8201602081018481111561006c57600080fd5b815164010000000081118282018710171561008657600080fd5b5050602082015160408301516060909301519194509250826100f3576040517f08c379a000000000000000000000000000000000000000000000000000000000815260040180806020018281038252602a815260200180610cfa602a913960400191505060405180910390fd5b82821161014b576040517f08c379a000000000000000000000000000000000000000000000000000000000815260040180806020018281038252603a815260200180610cc0603a913960400191505060405180910390fd5b600180546001600160a01b038089166001600160a01b0319928316179092556002805492881692909116919091179055835161018e906003906020870190610210565b506040805180820190915260058082527f447574636800000000000000000000000000000000000000000000000000000060209092019182526101d391600091610210565b50600c8054600994909455600a839055600b929092556001600160a01b03166001600160a81b0319909216919091179055505043600755506102ab565b828054600181600116156101000203166002900490600052602060002090601f016020900481019282601f1061025157805160ff191683800117855561027e565b8280016001018555821561027e579182015b8281111561027e578251825591602001919060010190610263565b5061028a92915061028e565b5090565b6102a891905b8082111561028a5760008155600101610294565b90565b610a06806102ba6000396000f3fe6080604052600436106100555760003560e01c80631998aeef1461005a5780634bb278f314610064578063605fed87146100795780636cc090811461008e5780637284e416146100b5578063c19d93fb14610201575b600080fd5b61006261023a565b005b34801561007057600080fd5b5061006261032c565b34801561008557600080fd5b506100626104cd565b34801561009a57600080fd5b506100a3610613565b60408051918252519081900360200190f35b3480156100c157600080fd5b506100ca6106cd565b6040518080602001886001600160a01b03166001600160a01b03168152602001876001600160a01b03166001600160a01b0316815260200180602001868152602001856001600160a01b03166001600160a01b0316815260200184815260200183810383528a818151815260200191508051906020019080838360005b8381101561015f578181015183820152602001610147565b50505050905090810190601f16801561018c5780820380516001836020036101000a031916815260200191505b50838103825287518152875160209182019189019080838360005b838110156101bf5781810151838201526020016101a7565b50505050905090810190601f1680156101ec5780820380516001836020036101000a031916815260200191505b50995050505050505050505060405180910390f35b34801561020d57600080fd5b5061021661082c565b6040518082600381111561022657fe5b60ff16815260200191505060405180910390f35b6001600c54600160a01b900460ff16600381111561025457fe5b146102a95760408051600160e51b62461bcd02815260206004820152601f60248201527f5468697320636f6e7472616374206973206e6f74206163746976652079657400604482015290519081900360640190fd5b6102b1610613565b3410156103085760408051600160e51b62461bcd02815260206004820181905260248201527f5468652076616c75652073656e74206973206e6f742073756666696369656e74604482015290519081900360640190fd5b600580546001600160a01b03191633179055346006554360085561032a61083c565b565b6001546001600160a01b0316331461037857604051600160e51b62461bcd02815260040180806020018281038252602c81526020018061090f602c913960400191505060405180910390fd5b6002600c54600160a01b900460ff16600381111561039257fe5b146103d157604051600160e51b62461bcd02815260040180806020018281038252602f81526020018061097a602f913960400191505060405180910390fd5b600c60085443031161041757604051600160e51b62461bcd02815260040180806020018281038252603f81526020018061093b603f913960400191505060405180910390fd5b600c8054600160a01b60ff02191674030000000000000000000000000000000000000000179055600554600654604080516001600160a01b0390931683526020830191909152303182820152517ff695043c68d141bf7715a80c7c181a21c469846be41ff74c864e392ba7b9c8889181900360600190a16002546006546040516001600160a01b039092169181156108fc0291906000818181858888f193505050501580156104ca573d6000803e3d6000fd5b50565b6001546001600160a01b0316331461051957604051600160e51b62461bcd02815260040180806020018281038252602c81526020018061090f602c913960400191505060405180910390fd5b6000600c54600160a01b900460ff16600381111561053357fe5b1461057257604051600160e51b62461bcd0281526004018080602001828103825260388152602001806108d76038913960400191505060405180910390fd5b60146007544303116105ce5760408051600160e51b62461bcd02815260206004820181905260248201527f477261636520706572696f64206973206e6f742066696e697368656420796574604482015290519081900360640190fd5b600c8054600160a01b60ff021916600160a01b179055436004556040517fee2679bc2382e067cc3dfbda872852b5b1702b359c1fd6ce272c32dae5bacabf90600090a1565b60048054600c54600b5460408051600160e01b635cf4ee9102815294850191909152439092036000818103602486015292519293909284926001600160a01b031691635cf4ee91916044808301926020929190829003018186803b15801561067a57600080fd5b505afa15801561068e573d6000803e3d6000fd5b505050506040513d60208110156106a457600080fd5b505160095490915081116106bd57600954600b556106c3565b600b8190555b600b549250505090565b60008054604080516020601f600260001961010060018816150201909516949094049384018190048102820181019092528281529183918301828280156107555780601f1061072a57610100808354040283529160200191610755565b820191906000526020600020905b81548152906001019060200180831161073857829003601f168201915b505050600180850154600280870154600388018054604080516020601f60001999851615610100029990990190931695909504968701829004820285018201905285845297986001600160a01b03948516989290941696509294509092908301828280156108045780601f106107d957610100808354040283529160200191610804565b820191906000526020600020905b8154815290600101906020018083116107e757829003601f168201915b5050505060048301546005840154600690940154929390926001600160a01b03909116915087565b600c54600160a01b900460ff1681565b6001600c54600160a01b900460ff16600381111561085657fe5b1461089557604051600160e51b62461bcd0281526004018080602001828103825260328152602001806109a96032913960400191505060405180910390fd5b600c8054600160a01b60ff021916600160a11b1790556040517f1be74661a60e254c7e358b393f2c9e8c7a90bf84248015d6b022c4c40d50893190600090a156fe546f2061637469766174652074686520636f6e747261637420796f75206d75737420626520696e2074686520477261636520506572696f644f6e6c79207468652061756374696f6e20686f7573652063616e2072756e20746869732066756e6374696f6e466f7220736563757269747920726561736f6e732c20796f75206e65656420746f207761697420746f2076616c69646174652074686520636f6e7472616374596f752063616e27742066696e616c697a65206120636f6e7472616374206265666f72652076616c69646174696f6e596f752063616e27742076616c6964617465206120636f6e7472616374206265666f72652061637469766174696e67206974a165627a7a72305820746817f03cccacdd395e04989f5032dcf37d467b616507dcf27faf6bf33e8a81002954686520696e697469616c2070726963652073686f756c642062652067726561746572207468616e207468652072657365727665207072696365526573657276652070726963652073686f756c642062652067726561746572207468616e207a65726f2ea165627a7a723058206d1864b6c188c64eea674dd737394c53c0ec6e6a754eccc616e37540be8d32f20029",
  "source": "pragma solidity ^ 0.5.1;\n\nimport \"./DutchAuction.sol\";\nimport \"./VickreyAuction.sol\";\n\n/// @title Auction House contract\n/// @author Andrea Bruno 585457\n\n/// @notice This contract implements the shared functionalities between the Dutch and Vickrey auction.\n/// @dev The following comments are written using the Solidity NatSpec Format.\n\n\ncontract AuctionHouse {\n    \n    uint fees = 0.01 ether;\n    \n    address[] public auctions;\n    uint public num_auctions;\n\n    address payable houseOwner;\n    \n    event newAuctionAvailable(string _type, address _address);\n    \n    constructor() public {\n        houseOwner = msg.sender;\n    }\n    \n    modifier onlyOwner {\n        require(msg.sender == houseOwner);\n        _;\n    }\n\n    modifier payFees() {\n        require(msg.value == fees, \"Please send a correct value\");\n        _;\n    }\n\n    function newDutch(\n        string memory _itemName,\n        uint _reservePrice,\n        uint _initialPrice,\n        Strategy _strategy\n    ) public payable payFees{\n        DutchAuction dutch = new DutchAuction(houseOwner, msg.sender, _itemName, _reservePrice, _initialPrice, _strategy);\n        auctions.push(address(dutch));\n        num_auctions += 1;\n        emit newAuctionAvailable(\"Dutch\", address(dutch));\n    }\n    // ******** TEST **********\n    // house = await AuctionHouse.deployed()\n    // slow = await SlowStrategy.deployed()\n    // accounts = await web3.eth.getAccounts()\n    // house.newDutch('XXX',100,100, slow.address, {value: 10000000000000000, from: accounts[0]})\n\n\n    \n    \n    function newVickrey(\n        string memory _itemName,\n        uint _reservePrice,\n        uint _min_deposit,\n        uint _commitment_len,\n        uint _withdrawal_len,\n        uint _opening_len\n    )  public payable payFees{\n        VickreyAuction vickrey = new VickreyAuction(houseOwner, msg.sender, _itemName, _reservePrice, _min_deposit, _commitment_len, _withdrawal_len, _opening_len);\n        auctions.push(address(vickrey));\n        num_auctions += 1;\n        emit newAuctionAvailable(\"Vickrey\", address(vickrey));\n    }\n    // ******** TEST **********\n    // house = await AuctionHouse.deployed()\n    // accounts = await web3.eth.getAccounts()\n    // house.newVickrey('aaa',100,100,10,10,10, {value: 10000000000000000, from: accounts[0]})\n\n\n    function getFees () public onlyOwner {\n        houseOwner.transfer(address(this).balance);\n    }\n}\n",
  "sourcePath": "/Users/andrea/Desktop/workspace/DAPP_SmartAuction/contracts/AuctionHouse.sol",
  "compiler": {
    "name": "solc",
    "version": "0.5.8+commit.23d335f2.Emscripten.clang"
  },
  "schemaVersion": "3.0.11",
  "updatedAt": "2019-07-01T20:47:40.477Z",
  "devdoc": {
    "author": "Andrea Bruno 585457",
    "details": "The following comments are written using the Solidity NatSpec Format.",
    "methods": {},
    "title": "Auction House contract"
  },
  "userdoc": {
    "methods": {},
    "notice": "This contract implements the shared functionalities between the Dutch and Vickrey auction."
  }
}