{
  "contractName": "AuctionHouse",
  "abi": [
    {
      "constant": true,
      "inputs": [
        {
          "name": "",
          "type": "uint256"
        }
      ],
      "name": "auctions",
      "outputs": [
        {
          "name": "",
          "type": "address"
        }
      ],
      "payable": false,
      "stateMutability": "view",
      "type": "function"
    },
    {
      "constant": true,
      "inputs": [],
      "name": "num_auctions",
      "outputs": [
        {
          "name": "",
          "type": "uint256"
        }
      ],
      "payable": false,
      "stateMutability": "view",
      "type": "function"
    },
    {
      "inputs": [],
      "payable": false,
      "stateMutability": "nonpayable",
      "type": "constructor"
    },
    {
      "anonymous": false,
      "inputs": [
        {
          "indexed": false,
          "name": "_type",
          "type": "string"
        },
        {
          "indexed": false,
          "name": "_address",
          "type": "address"
        }
      ],
      "name": "newAuctionAvailable",
      "type": "event"
    },
    {
      "constant": false,
      "inputs": [
        {
          "name": "_itemName",
          "type": "string"
        },
        {
          "name": "_reservePrice",
          "type": "uint256"
        },
        {
          "name": "_initialPrice",
          "type": "uint256"
        },
        {
          "name": "_strategy",
          "type": "address"
        }
      ],
      "name": "newDutch",
      "outputs": [],
      "payable": true,
      "stateMutability": "payable",
      "type": "function"
    },
    {
      "constant": false,
      "inputs": [
        {
          "name": "_itemName",
          "type": "string"
        },
        {
          "name": "_reservePrice",
          "type": "uint256"
        },
        {
          "name": "_min_deposit",
          "type": "uint256"
        },
        {
          "name": "_commitment_len",
          "type": "uint256"
        },
        {
          "name": "_withdrawal_len",
          "type": "uint256"
        },
        {
          "name": "_opening_len",
          "type": "uint256"
        }
      ],
      "name": "newVickrey",
      "outputs": [],
      "payable": true,
      "stateMutability": "payable",
      "type": "function"
    },
    {
      "constant": false,
      "inputs": [],
      "name": "getFees",
      "outputs": [],
      "payable": false,
      "stateMutability": "nonpayable",
      "type": "function"
    }
  ],
  "bytecode": "0x6080604052662386f26fc1000060005534801561001b57600080fd5b50600380546001600160a01b03191633179055612b638061003d6000396000f3fe60806040526004361061004a5760003560e01c8063571a26a01461004f57806357f36193146100955780636f0cf9a4146101545780639370c1641461017b578063db8d55f114610235575b600080fd5b34801561005b57600080fd5b506100796004803603602081101561007257600080fd5b503561024a565b604080516001600160a01b039092168252519081900360200190f35b610152600480360360c08110156100ab57600080fd5b8101906020810181356401000000008111156100c657600080fd5b8201836020820111156100d857600080fd5b803590602001918460018302840111640100000000831117156100fa57600080fd5b91908080601f0160208091040260200160405190810160405280939291908181526020018383808284376000920191909152509295505082359350505060208101359060408101359060608101359060800135610271565b005b34801561016057600080fd5b5061016961048a565b60408051918252519081900360200190f35b6101526004803603608081101561019157600080fd5b8101906020810181356401000000008111156101ac57600080fd5b8201836020820111156101be57600080fd5b803590602001918460018302840111640100000000831117156101e057600080fd5b91908080601f01602080910402602001604051908101604052809392919081815260200183838082843760009201919091525092955050823593505050602081013590604001356001600160a01b0316610490565b34801561024157600080fd5b506101526106a7565b6001818154811061025757fe5b6000918252602090912001546001600160a01b0316905081565b60005434146102ca5760408051600160e51b62461bcd02815260206004820152601b60248201527f506c656173652073656e64206120636f72726563742076616c75650000000000604482015290519081900360640190fd5b6000600360009054906101000a90046001600160a01b0316338888888888886040516102f5906106fb565b80896001600160a01b03166001600160a01b03168152602001886001600160a01b03166001600160a01b0316815260200180602001878152602001868152602001858152602001848152602001838152602001828103825288818151815260200191508051906020019080838360005b8381101561037d578181015183820152602001610365565b50505050905090810190601f1680156103aa5780820380516001836020036101000a031916815260200191505b509950505050505050505050604051809103906000f0801580156103d2573d6000803e3d6000fd5b5060018054808201825560008290527fb10e2d527612073b26eecdfd717e6a320cf44b4afac2b0732d9fcbe2b7fa0cf60180546001600160a01b0384166001600160a01b0319909116811790915560028054909201909155604080516020810192909252808252600782820152600160c81b665669636b726579026060830152519192507fbd89ca29a9c5ddb927f92cb1ccde38d5d135cfb597fcde3ecf20529ab97ef54b919081900360800190a150505050505050565b60025481565b60005434146104e95760408051600160e51b62461bcd02815260206004820152601b60248201527f506c656173652073656e64206120636f72726563742076616c75650000000000604482015290519081900360640190fd5b6000600360009054906101000a90046001600160a01b0316338686868660405161051290610708565b80876001600160a01b03166001600160a01b03168152602001866001600160a01b03166001600160a01b0316815260200180602001858152602001848152602001836001600160a01b03166001600160a01b03168152602001828103825286818151815260200191508051906020019080838360005b838110156105a0578181015183820152602001610588565b50505050905090810190601f1680156105cd5780820380516001836020036101000a031916815260200191505b50975050505050505050604051809103906000f0801580156105f3573d6000803e3d6000fd5b5060018054808201825560008290527fb10e2d527612073b26eecdfd717e6a320cf44b4afac2b0732d9fcbe2b7fa0cf60180546001600160a01b0384166001600160a01b0319909116811790915560028054909201909155604080516020810192909252808252600582820152600160db1b64088eae8c6d026060830152519192507fbd89ca29a9c5ddb927f92cb1ccde38d5d135cfb597fcde3ecf20529ab97ef54b919081900360800190a15050505050565b6003546001600160a01b031633146106be57600080fd5b6003546040516001600160a01b0390911690303180156108fc02916000818181858888f193505050501580156106f8573d6000803e3d6000fd5b50565b6116ec8061071683390190565b610d3680611e028339019056fe60806040526012805460ff191660011790553480156200001e57600080fd5b50604051620016ec380380620016ec83398101806040526101008110156200004557600080fd5b81516020830151604084018051929491938201926401000000008111156200006c57600080fd5b820160208101848111156200008057600080fd5b81516401000000008111828201871017156200009b57600080fd5b5050602082015160408301516060840151608085015160a0909501519396509194509290918462000118576040517f08c379a000000000000000000000000000000000000000000000000000000000815260040180806020018281038252602a815260200180620016c2602a913960400191505060405180910390fd5b8484101562000173576040517f08c379a0000000000000000000000000000000000000000000000000000000008152600401808060200182810382526034815260200180620015f26034913960400191505060405180910390fd5b60008311620001ce576040517f08c379a0000000000000000000000000000000000000000000000000000000008152600401808060200182810382526035815260200180620016266035913960400191505060405180910390fd5b6000821162000229576040517f08c379a00000000000000000000000000000000000000000000000000000000081526004018080602001828103825260358152602001806200168d6035913960400191505060405180910390fd5b6000811162000284576040517f08c379a00000000000000000000000000000000000000000000000000000000081526004018080602001828103825260328152602001806200165b6032913960400191505060405180910390fd5b600280546001600160a01b03808b166001600160a01b03199283161790925560038054928a16929091169190911790558551620002c990600490602089019062000346565b506040805180820190915260078082527f5669636b726579000000000000000000000000000000000000000000000000006020909201918252620003109160009162000346565b504360018190556008805460ff19169055600a95909555600b93909355600c91909155600d55600e5560095550620003eb915050565b828054600181600116156101000203166002900490600052602060002090601f016020900481019282601f106200038957805160ff1916838001178555620003b9565b82800160010185558215620003b9579182015b82811115620003b95782518255916020019190600101906200039c565b50620003c7929150620003cb565b5090565b620003e891905b80821115620003c75760008155600101620003d2565b90565b6111f780620003fb6000396000f3fe6080604052600436106100915760003560e01c8063b1c9fe6e11610059578063b1c9fe6e14610259578063bc2f8dd814610292578063d3b3f73a146102a7578063d4e93292146102c4578063fef06efa146102d957610091565b80634bb278f3146100965780634d5f811e146100ad578063605fed87146100d45780637284e416146100e9578063957bb1e01461023c575b600080fd5b3480156100a257600080fd5b506100ab6102ee565b005b3480156100b957600080fd5b506100c261052f565b60408051918252519081900360200190f35b3480156100e057600080fd5b506100ab610535565b3480156100f557600080fd5b506100fe610670565b6040518080602001898152602001886001600160a01b03166001600160a01b03168152602001876001600160a01b03166001600160a01b0316815260200180602001868152602001856001600160a01b03166001600160a01b0316815260200184815260200183810383528b818151815260200191508051906020019080838360005b83811015610199578181015183820152602001610181565b50505050905090810190601f1680156101c65780820380516001836020036101000a031916815260200191505b50838103825287518152875160209182019189019080838360005b838110156101f95781810151838201526020016101e1565b50505050905090810190601f1680156102265780820380516001836020036101000a031916815260200191505b509a505050505050505050505060405180910390f35b6100ab6004803603602081101561025257600080fd5b50356107d3565b34801561026557600080fd5b5061026e61099e565b6040518082600481111561027e57fe5b60ff16815260200191505060405180910390f35b34801561029e57600080fd5b506100ab6109a7565b6100ab600480360360208110156102bd57600080fd5b5035610ac8565b3480156102d057600080fd5b506100ab610d07565b3480156102e557600080fd5b506100ab610ef9565b6002546001600160a01b0316331461033a57604051600160e51b62461bcd02815260040180806020018281038252602c8152602001806110b0602c913960400191505060405180910390fd5b600360085460ff16600481111561034d57fe5b1461038c57604051600160e51b62461bcd02815260040180806020018281038252602e815260200180611102602e913960400191505060405180910390fd5b600e546009544303116103d357604051600160e51b62461bcd0281526004018080602001828103825260228152602001806111816022913960400191505060405180910390fd5b600f546001600160a01b03161561047b57600f54600680546001600160a01b0319166001600160a01b039092169182179055601154600781905560105460405191900380156108fc02916000818181858888f1935050505015801561043c573d6000803e3d6000fd5b506003546007546040516001600160a01b039092169181156108fc0291906000818181858888f19350505050158015610479573d6000803e3d6000fd5b505b60088054600460ff19909116179055600654600754604080516001600160a01b0390931683526020830191909152303182820181905290517364db1b94a0304e4c27de2e758b2f962d09dfe503927ff695043c68d141bf7715a80c7c181a21c469846be41ff74c864e392ba7b9c888919081900360600190a16040516001600160a01b0383169082156108fc029083906000818181858888f1935050505015801561052a573d6000803e3d6000fd5b505050565b600b5481565b6002546001600160a01b0316331461058157604051600160e51b62461bcd02815260040180806020018281038252602c8152602001806110b0602c913960400191505060405180910390fd5b600060085460ff16600481111561059457fe5b146105d357604051600160e51b62461bcd0281526004018080602001828103825260388152602001806110786038913960400191505060405180910390fd5b601460095443031161062f5760408051600160e51b62461bcd02815260206004820181905260248201527f477261636520706572696f64206973206e6f742066696e697368656420796574604482015290519081900360640190fd5b6008805460ff191660011790554360058190556009556040517fee2679bc2382e067cc3dfbda872852b5b1702b359c1fd6ce272c32dae5bacabf90600090a1565b60008054604080516020601f600260001961010060018816150201909516949094049384018190048102820181019092528281529183918301828280156106f85780601f106106cd576101008083540402835291602001916106f8565b820191906000526020600020905b8154815290600101906020018083116106db57829003601f168201915b505050506001838101546002808601546003870154600488018054604080516020601f6000199a851615610100029a909a01909316969096049788018290048202860182019052868552979894976001600160a01b039384169750929091169490918301828280156107ab5780601f10610780576101008083540402835291602001916107ab565b820191906000526020600020905b81548152906001019060200180831161078e57829003601f168201915b5050505060058301546006840154600790940154929390926001600160a01b03909116915088565b600160085460ff1660048111156107e657fe5b1461083b5760408051600160e51b62461bcd02815260206004820181905260248201527f436f6d6d69746d656e74207068617365206e6f74207374617274656420796574604482015290519081900360640190fd5b600c54600954430311156108995760408051600160e51b62461bcd02815260206004820152601960248201527f436f6d6d69746d656e7420706861736520697320656e64656400000000000000604482015290519081900360640190fd5b600b543410156108f35760408051600160e51b62461bcd02815260206004820181905260248201527f5468652076616c75652073656e74206973206e6f742073756666696369656e74604482015290519081900360640190fd5b33600090815260136020526040902054156109585760408051600160e51b62461bcd02815260206004820181905260248201527f596f75206861766520616c7265616479207375626d6974746564206120626964604482015290519081900360640190fd5b610960611050565b604080820192835234606083019081523360009081526013602090815292902083518155919092015160018201559151600283015551600390910155565b60085460ff1681565b6002546001600160a01b031633146109f357604051600160e51b62461bcd02815260040180806020018281038252602c8152602001806110b0602c913960400191505060405180910390fd5b600160085460ff166004811115610a0657fe5b14610a4557604051600160e51b62461bcd02815260040180806020018281038252602c815260200180611130602c913960400191505060405180910390fd5b600c54600954430311610a8c57604051600160e51b62461bcd02815260040180806020018281038252602581526020018061115c6025913960400191505060405180910390fd5b6008805460ff19166002179055436009556040517f06179f52469b624307d1134ccac6737f9f8297dc742b397eb14de0530dd596fa90600090a1565b600360085460ff166004811115610adb57fe5b14610b305760408051600160e51b62461bcd02815260206004820152601d60248201527f4f70656e696e67207068617365206e6f74207374617274656420796574000000604482015290519081900360640190fd5b600e5460095443031115610b8e5760408051600160e51b62461bcd02815260206004820152601660248201527f4f70656e696e6720706861736520697320656e64656400000000000000000000604482015290519081900360640190fd5b33600090815260136020908152604091829020600201548251348184015280840185905283518082038501815260609091019093528251929091019190912014610c125760408051600160e51b62461bcd02815260206004820152600a6024820152600160b31b690aee4dedcce40d0c2e6d02604482015290519081900360640190fd5b33600081815260136020526040808220600301805490839055905190929183156108fc02918491818181858888f19350505050158015610c56573d6000803e3d6000fd5b5033600090815260136020526040902034815560010182905560125460ff1615610ca557600f80546001600160a01b0319163317905534601055600a546011556012805460ff19169055610d03565b601054341115610cea576010546011819055600f54610ccf916001600160a01b039091169061101a565b600f80546001600160a01b0319163317905534601055610d03565b601154341115610cf957346011555b610d03333461101a565b5050565b600260085460ff166004811115610d1a57fe5b14610d6f5760408051600160e51b62461bcd02815260206004820181905260248201527f5769746864726177616c207068617365206e6f74207374617274656420796574604482015290519081900360640190fd5b600d5460095443031115610dcd5760408051600160e51b62461bcd02815260206004820152601960248201527f5769746864726177616c20706861736520697320656e64656400000000000000604482015290519081900360640190fd5b33600090815260136020526040902060030154610e1e57604051600160e51b62461bcd0281526004018080602001828103825260268152602001806110dc6026913960400191505060405180910390fd5b33600081815260136020908152604080832060039081018054949055548151948552600284049285018390526001600160a01b0316848201529181900360608401819052915190927fe77c6e79e6e29c0d19961bf68269998b3c16b233806a74107f327a31c5eca329919081900360800190a16003546040516001600160a01b039091169082156108fc029083906000818181858888f19350505050158015610ecb573d6000803e3d6000fd5b50604051339083156108fc029084906000818181858888f1935050505015801561052a573d6000803e3d6000fd5b6002546001600160a01b03163314610f4557604051600160e51b62461bcd02815260040180806020018281038252602c8152602001806110b0602c913960400191505060405180910390fd5b600260085460ff166004811115610f5857fe5b14610f9757604051600160e51b62461bcd0281526004018080602001828103825260298152602001806111a36029913960400191505060405180910390fd5b600d54600954430311610fde57604051600160e51b62461bcd02815260040180806020018281038252602581526020018061115c6025913960400191505060405180910390fd5b6008805460ff19166003179055436009556040517fe884e87cca623860f1ac029c5df020e7b7ebad72eab657701673da4cf3e9046190600090a1565b6040516001600160a01b0383169082156108fc029083906000818181858888f1935050505015801561052a573d6000803e3d6000fd5b6040805160808101825260008082526020820181905291810182905260608101919091529056fe546f2061637469766174652074686520636f6e747261637420796f75206d75737420626520696e2074686520477261636520506572696f644f6e6c79207468652061756374696f6e20686f7573652063616e2072756e20746869732066756e6374696f6e596f7520646f6e2774206861766520616e79206465706f73697420746f207769746864726177596f752063616e27742066696e616c697a652074686520636f6e7472616374206265666f7265206f70656e696e67596f752063616e2774207374617274207769746864726177616c206265666f726520636f6d6d69746d656e74436f6d6d69746d656e7420706572696f64206973206e6f742066696e6973686564207965744f70656e696e6720706572696f64206973206e6f742066696e697368656420796574596f752063616e2774207374617274206f70656e696e67206265666f7265207769746864726177616ca165627a7a72305820bc490c285b91309c6c9acbb61cb51fa531e9031c20d47e543e6bee8d993fd5950029546865206465706f7369742073686f756c642062652067726561746572207468616e207468652072657365727665207072696365546865206c656e676874206f6620636f6d6d69746d656e742073686f756c642062652067726561746572207468616e207a65726f2e546865206c656e676874206f66206f70656e696e672073686f756c642062652067726561746572207468616e207a65726f2e546865206c656e676874206f66207769746864726177616c2073686f756c642062652067726561746572207468616e207a65726f2e526573657276652070726963652073686f756c642062652067726561746572207468616e207a65726f2e608060405234801561001057600080fd5b50604051610d36380380610d36833981018060405260c081101561003357600080fd5b815160208301516040840180519294919382019264010000000081111561005957600080fd5b8201602081018481111561006c57600080fd5b815164010000000081118282018710171561008657600080fd5b5050602082015160408301516060909301519194509250826100f3576040517f08c379a000000000000000000000000000000000000000000000000000000000815260040180806020018281038252602a815260200180610d0c602a913960400191505060405180910390fd5b82821161014b576040517f08c379a000000000000000000000000000000000000000000000000000000000815260040180806020018281038252603a815260200180610cd2603a913960400191505060405180910390fd5b600280546001600160a01b038089166001600160a01b0319928316179092556003805492881692909116919091179055835161018e906004906020870190610216565b506040805180820190915260058082527f447574636800000000000000000000000000000000000000000000000000000060209092019182526101d391600091610216565b50436001819055600d8054600a95909555600b849055600c939093556001600160a81b03199093166001600160a01b0391909116179055600855506102b1915050565b828054600181600116156101000203166002900490600052602060002090601f016020900481019282601f1061025757805160ff1916838001178555610284565b82800160010185558215610284579182015b82811115610284578251825591602001919060010190610269565b50610290929150610294565b5090565b6102ae91905b80821115610290576000815560010161029a565b90565b610a12806102c06000396000f3fe6080604052600436106100555760003560e01c80631998aeef1461005a5780634bb278f314610064578063605fed87146100795780636cc090811461008e5780637284e416146100b5578063c19d93fb14610208575b600080fd5b610062610241565b005b34801561007057600080fd5b50610062610333565b34801561008557600080fd5b506100626104d4565b34801561009a57600080fd5b506100a361061a565b60408051918252519081900360200190f35b3480156100c157600080fd5b506100ca6106d5565b6040518080602001898152602001886001600160a01b03166001600160a01b03168152602001876001600160a01b03166001600160a01b0316815260200180602001868152602001856001600160a01b03166001600160a01b0316815260200184815260200183810383528b818151815260200191508051906020019080838360005b8381101561016557818101518382015260200161014d565b50505050905090810190601f1680156101925780820380516001836020036101000a031916815260200191505b50838103825287518152875160209182019189019080838360005b838110156101c55781810151838201526020016101ad565b50505050905090810190601f1680156101f25780820380516001836020036101000a031916815260200191505b509a505050505050505050505060405180910390f35b34801561021457600080fd5b5061021d610838565b6040518082600381111561022d57fe5b60ff16815260200191505060405180910390f35b6001600d54600160a01b900460ff16600381111561025b57fe5b146102b05760408051600160e51b62461bcd02815260206004820152601f60248201527f5468697320636f6e7472616374206973206e6f74206163746976652079657400604482015290519081900360640190fd5b6102b861061a565b34101561030f5760408051600160e51b62461bcd02815260206004820181905260248201527f5468652076616c75652073656e74206973206e6f742073756666696369656e74604482015290519081900360640190fd5b600680546001600160a01b031916331790553460075543600955610331610848565b565b6002546001600160a01b0316331461037f57604051600160e51b62461bcd02815260040180806020018281038252602c81526020018061091b602c913960400191505060405180910390fd5b6002600d54600160a01b900460ff16600381111561039957fe5b146103d857604051600160e51b62461bcd02815260040180806020018281038252602f815260200180610986602f913960400191505060405180910390fd5b600c60095443031161041e57604051600160e51b62461bcd02815260040180806020018281038252603f815260200180610947603f913960400191505060405180910390fd5b600d8054600160a01b60ff02191674030000000000000000000000000000000000000000179055600654600754604080516001600160a01b0390931683526020830191909152303182820152517ff695043c68d141bf7715a80c7c181a21c469846be41ff74c864e392ba7b9c8889181900360600190a16003546007546040516001600160a01b039092169181156108fc0291906000818181858888f193505050501580156104d1573d6000803e3d6000fd5b50565b6002546001600160a01b0316331461052057604051600160e51b62461bcd02815260040180806020018281038252602c81526020018061091b602c913960400191505060405180910390fd5b6000600d54600160a01b900460ff16600381111561053a57fe5b1461057957604051600160e51b62461bcd0281526004018080602001828103825260388152602001806108e36038913960400191505060405180910390fd5b60146008544303116105d55760408051600160e51b62461bcd02815260206004820181905260248201527f477261636520706572696f64206973206e6f742066696e697368656420796574604482015290519081900360640190fd5b600d8054600160a01b60ff021916600160a01b179055436005556040517fee2679bc2382e067cc3dfbda872852b5b1702b359c1fd6ce272c32dae5bacabf90600090a1565b600554600d54600c5460408051600160e01b635cf4ee91028152600481019290925243909303600081810360248401529351909284926001600160a01b0390911691635cf4ee9191604480820192602092909190829003018186803b15801561068257600080fd5b505afa158015610696573d6000803e3d6000fd5b505050506040513d60208110156106ac57600080fd5b5051600a5490915081116106c557600a54600c556106cb565b600c8190555b600c549250505090565b60008054604080516020601f6002600019610100600188161502019095169490940493840181900481028201810190925282815291839183018282801561075d5780601f106107325761010080835404028352916020019161075d565b820191906000526020600020905b81548152906001019060200180831161074057829003601f168201915b505050506001838101546002808601546003870154600488018054604080516020601f6000199a851615610100029a909a01909316969096049788018290048202860182019052868552979894976001600160a01b039384169750929091169490918301828280156108105780601f106107e557610100808354040283529160200191610810565b820191906000526020600020905b8154815290600101906020018083116107f357829003601f168201915b5050505060058301546006840154600790940154929390926001600160a01b03909116915088565b600d54600160a01b900460ff1681565b6001600d54600160a01b900460ff16600381111561086257fe5b146108a157604051600160e51b62461bcd0281526004018080602001828103825260328152602001806109b56032913960400191505060405180910390fd5b600d8054600160a01b60ff021916600160a11b1790556040517f1be74661a60e254c7e358b393f2c9e8c7a90bf84248015d6b022c4c40d50893190600090a156fe546f2061637469766174652074686520636f6e747261637420796f75206d75737420626520696e2074686520477261636520506572696f644f6e6c79207468652061756374696f6e20686f7573652063616e2072756e20746869732066756e6374696f6e466f7220736563757269747920726561736f6e732c20796f75206e65656420746f207761697420746f2076616c69646174652074686520636f6e7472616374596f752063616e27742066696e616c697a65206120636f6e7472616374206265666f72652076616c69646174696f6e596f752063616e27742076616c6964617465206120636f6e7472616374206265666f72652061637469766174696e67206974a165627a7a7230582083df17e133e89b02e9525a7319b565c0acc0b4d99eff6eb432acd46d49c11588002954686520696e697469616c2070726963652073686f756c642062652067726561746572207468616e207468652072657365727665207072696365526573657276652070726963652073686f756c642062652067726561746572207468616e207a65726f2ea165627a7a723058205eecd2a1e5a37b25426ea743cd05bed5ad481d4aa1a4764cc854ed36008fa0e40029",
  "source": "pragma solidity ^ 0.5.1;\n\nimport \"./DutchAuction.sol\";\nimport \"./VickreyAuction.sol\";\n\n/// @title Auction House contract\n/// @author Andrea Bruno 585457\n\n/// @notice This contract implements the shared functionalities between the Dutch and Vickrey auction.\n/// @dev The following comments are written using the Solidity NatSpec Format.\n\n\ncontract AuctionHouse {\n    \n    uint fees = 0.01 ether;\n    \n    address[] public auctions;\n    uint public num_auctions;\n\n    address payable houseOwner;\n    \n    event newAuctionAvailable(string _type, address _address);\n    \n    constructor() public {\n        houseOwner = msg.sender;\n    }\n    \n    modifier onlyOwner {\n        require(msg.sender == houseOwner);\n        _;\n    }\n\n    modifier payFees() {\n        require(msg.value == fees, \"Please send a correct value\");\n        _;\n    }\n\n    function newDutch(\n        string memory _itemName,\n        uint _reservePrice,\n        uint _initialPrice,\n        Strategy _strategy\n    ) public payable payFees{\n        DutchAuction dutch = new DutchAuction(houseOwner, msg.sender, _itemName, _reservePrice, _initialPrice, _strategy);\n        auctions.push(address(dutch));\n        num_auctions += 1;\n        emit newAuctionAvailable(\"Dutch\", address(dutch));\n    }\n    // ******** TEST **********\n    // house = await AuctionHouse.deployed()\n    // slow = await SlowStrategy.deployed()\n    // accounts = await web3.eth.getAccounts()\n    // house.newDutch('XXX',100,100, slow.address, {value: 10000000000000000, from: accounts[0]})\n\n\n    \n    \n    function newVickrey(\n        string memory _itemName,\n        uint _reservePrice,\n        uint _min_deposit,\n        uint _commitment_len,\n        uint _withdrawal_len,\n        uint _opening_len\n    )  public payable payFees{\n        VickreyAuction vickrey = new VickreyAuction(houseOwner, msg.sender, _itemName, _reservePrice, _min_deposit, _commitment_len, _withdrawal_len, _opening_len);\n        auctions.push(address(vickrey));\n        num_auctions += 1;\n        emit newAuctionAvailable(\"Vickrey\", address(vickrey));\n    }\n    // ******** TEST **********\n    // house = await AuctionHouse.deployed()\n    // accounts = await web3.eth.getAccounts()\n    // house.newVickrey('aaa',100,100,10,10,10, {value: 10000000000000000, from: accounts[0]})\n\n\n    function getFees () public onlyOwner {\n        houseOwner.transfer(address(this).balance);\n    }\n}\n",
  "sourcePath": "/Users/andrea/Desktop/workspace/DAPP_SmartAuction/contracts/AuctionHouse.sol",
  "compiler": {
    "name": "solc",
    "version": "0.5.8+commit.23d335f2.Emscripten.clang"
  },
  "schemaVersion": "3.0.11",
  "updatedAt": "2019-07-02T10:31:17.180Z",
  "devdoc": {
    "author": "Andrea Bruno 585457",
    "details": "The following comments are written using the Solidity NatSpec Format.",
    "methods": {},
    "title": "Auction House contract"
  },
  "userdoc": {
    "methods": {},
    "notice": "This contract implements the shared functionalities between the Dutch and Vickrey auction."
  }
}