{
  "contractName": "Bid",
  "abi": [
    {
      "constant": true,
      "inputs": [
        {
          "name": "_bidValue",
          "type": "uint256"
        }
      ],
      "name": "generate",
      "outputs": [
        {
          "name": "",
          "type": "uint256"
        },
        {
          "name": "",
          "type": "bytes32"
        },
        {
          "name": "",
          "type": "bytes32"
        }
      ],
      "payable": false,
      "stateMutability": "view",
      "type": "function"
    }
  ],
  "bytecode": "0x6080604052348015600f57600080fd5b5060e08061001e6000396000f3fe6080604052348015600f57600080fd5b506004361060285760003560e01c80634a7dd52314602d575b600080fd5b604760048036036020811015604157600080fd5b50356065565b60408051938452602084019290925282820152519081900360600190f35b604080514260208083019190915282518083038201815282840184528051908201206060830185905260808084018290528451808503909101815260a09093019093528151910120919290919056fea165627a7a72305820207dfff484c53e907c532b1089b0281ddd9f4c534e80c5c107f2997cabc69d4f0029",
  "source": "pragma solidity ^ 0.5.1;\n\n/// @title Bid contract\n/// @author Andrea Bruno 585457\n/// @notice This contract helps people in making bids. If deployed locally, no gas is required.\n/// @dev The following comments are written using the Solidity NatSpec Format.\ncontract Bid {\n    /// @notice This function generates the nonce and the hash needed in the Vickrey Auction.\n    /// @param _bidValue is the desired bid.\n    function generate(uint _bidValue) public view returns(uint, bytes32, bytes32) {\n        uint value;\n        bytes32 nonce;\n        bytes32 hash;\n\n        value = _bidValue;\n        nonce = keccak256(abi.encodePacked(block.timestamp));\n        hash = keccak256(abi.encodePacked(_bidValue, nonce));\n\n        return (value, nonce, hash);\n    }\n}\n",
  "sourcePath": "/Users/andrea/Desktop/workspace/DAPP_SmartAuction/contracts/Bid.sol",
  "compiler": {
    "name": "solc",
    "version": "0.5.8+commit.23d335f2.Emscripten.clang"
  },
  "schemaVersion": "3.0.11",
  "updatedAt": "2019-07-01T20:47:40.486Z",
  "devdoc": {
    "author": "Andrea Bruno 585457",
    "details": "The following comments are written using the Solidity NatSpec Format.",
    "methods": {
      "generate(uint256)": {
        "params": {
          "_bidValue": "is the desired bid."
        }
      }
    },
    "title": "Bid contract"
  },
  "userdoc": {
    "methods": {
      "generate(uint256)": {
        "notice": "This function generates the nonce and the hash needed in the Vickrey Auction."
      }
    },
    "notice": "This contract helps people in making bids. If deployed locally, no gas is required."
  }
}