{
  "contractName": "DutchAuction",
  "abi": [
    {
      "constant": true,
      "inputs": [],
      "name": "description",
      "outputs": [
        {
          "name": "category",
          "type": "string"
        },
        {
          "name": "deployBlock",
          "type": "uint256"
        },
        {
          "name": "house",
          "type": "address"
        },
        {
          "name": "seller",
          "type": "address"
        },
        {
          "name": "itemName",
          "type": "string"
        },
        {
          "name": "startBlock",
          "type": "uint256"
        },
        {
          "name": "winnerAddress",
          "type": "address"
        },
        {
          "name": "winnerBid",
          "type": "uint256"
        }
      ],
      "payable": false,
      "stateMutability": "view",
      "type": "function"
    },
    {
      "constant": true,
      "inputs": [],
      "name": "state",
      "outputs": [
        {
          "name": "",
          "type": "uint8"
        }
      ],
      "payable": false,
      "stateMutability": "view",
      "type": "function"
    },
    {
      "inputs": [
        {
          "name": "_houseOwner",
          "type": "address"
        },
        {
          "name": "_seller",
          "type": "address"
        },
        {
          "name": "_itemName",
          "type": "string"
        },
        {
          "name": "_reservePrice",
          "type": "uint256"
        },
        {
          "name": "_initialPrice",
          "type": "uint256"
        },
        {
          "name": "_strategy",
          "type": "address"
        }
      ],
      "payable": false,
      "stateMutability": "nonpayable",
      "type": "constructor"
    },
    {
      "anonymous": false,
      "inputs": [],
      "name": "auctionValidation",
      "type": "event"
    },
    {
      "anonymous": false,
      "inputs": [],
      "name": "auctionStarted",
      "type": "event"
    },
    {
      "anonymous": false,
      "inputs": [
        {
          "indexed": false,
          "name": "winnerAddress",
          "type": "address"
        },
        {
          "indexed": false,
          "name": "winnerBid",
          "type": "uint256"
        },
        {
          "indexed": false,
          "name": "surplusFounds",
          "type": "uint256"
        }
      ],
      "name": "auctionFinished",
      "type": "event"
    },
    {
      "constant": false,
      "inputs": [],
      "name": "activateAuction",
      "outputs": [],
      "payable": false,
      "stateMutability": "nonpayable",
      "type": "function"
    },
    {
      "constant": false,
      "inputs": [],
      "name": "getActualPrice",
      "outputs": [
        {
          "name": "",
          "type": "uint256"
        }
      ],
      "payable": false,
      "stateMutability": "nonpayable",
      "type": "function"
    },
    {
      "constant": false,
      "inputs": [],
      "name": "bid",
      "outputs": [],
      "payable": true,
      "stateMutability": "payable",
      "type": "function"
    },
    {
      "constant": false,
      "inputs": [],
      "name": "finalize",
      "outputs": [],
      "payable": false,
      "stateMutability": "nonpayable",
      "type": "function"
    }
  ],
  "bytecode": "0x608060405234801561001057600080fd5b50604051610d36380380610d36833981018060405260c081101561003357600080fd5b815160208301516040840180519294919382019264010000000081111561005957600080fd5b8201602081018481111561006c57600080fd5b815164010000000081118282018710171561008657600080fd5b5050602082015160408301516060909301519194509250826100f3576040517f08c379a000000000000000000000000000000000000000000000000000000000815260040180806020018281038252602a815260200180610d0c602a913960400191505060405180910390fd5b82821161014b576040517f08c379a000000000000000000000000000000000000000000000000000000000815260040180806020018281038252603a815260200180610cd2603a913960400191505060405180910390fd5b600280546001600160a01b038089166001600160a01b0319928316179092556003805492881692909116919091179055835161018e906004906020870190610216565b506040805180820190915260058082527f447574636800000000000000000000000000000000000000000000000000000060209092019182526101d391600091610216565b50436001819055600d8054600a95909555600b849055600c939093556001600160a81b03199093166001600160a01b0391909116179055600855506102b1915050565b828054600181600116156101000203166002900490600052602060002090601f016020900481019282601f1061025757805160ff1916838001178555610284565b82800160010185558215610284579182015b82811115610284578251825591602001919060010190610269565b50610290929150610294565b5090565b6102ae91905b80821115610290576000815560010161029a565b90565b610a12806102c06000396000f3fe6080604052600436106100555760003560e01c80631998aeef1461005a5780634bb278f314610064578063605fed87146100795780636cc090811461008e5780637284e416146100b5578063c19d93fb14610208575b600080fd5b610062610241565b005b34801561007057600080fd5b50610062610333565b34801561008557600080fd5b506100626104d4565b34801561009a57600080fd5b506100a361061a565b60408051918252519081900360200190f35b3480156100c157600080fd5b506100ca6106d5565b6040518080602001898152602001886001600160a01b03166001600160a01b03168152602001876001600160a01b03166001600160a01b0316815260200180602001868152602001856001600160a01b03166001600160a01b0316815260200184815260200183810383528b818151815260200191508051906020019080838360005b8381101561016557818101518382015260200161014d565b50505050905090810190601f1680156101925780820380516001836020036101000a031916815260200191505b50838103825287518152875160209182019189019080838360005b838110156101c55781810151838201526020016101ad565b50505050905090810190601f1680156101f25780820380516001836020036101000a031916815260200191505b509a505050505050505050505060405180910390f35b34801561021457600080fd5b5061021d610838565b6040518082600381111561022d57fe5b60ff16815260200191505060405180910390f35b6001600d54600160a01b900460ff16600381111561025b57fe5b146102b05760408051600160e51b62461bcd02815260206004820152601f60248201527f5468697320636f6e7472616374206973206e6f74206163746976652079657400604482015290519081900360640190fd5b6102b861061a565b34101561030f5760408051600160e51b62461bcd02815260206004820181905260248201527f5468652076616c75652073656e74206973206e6f742073756666696369656e74604482015290519081900360640190fd5b600680546001600160a01b031916331790553460075543600955610331610848565b565b6002546001600160a01b0316331461037f57604051600160e51b62461bcd02815260040180806020018281038252602c81526020018061091b602c913960400191505060405180910390fd5b6002600d54600160a01b900460ff16600381111561039957fe5b146103d857604051600160e51b62461bcd02815260040180806020018281038252602f815260200180610986602f913960400191505060405180910390fd5b600c60095443031161041e57604051600160e51b62461bcd02815260040180806020018281038252603f815260200180610947603f913960400191505060405180910390fd5b600d8054600160a01b60ff02191674030000000000000000000000000000000000000000179055600654600754604080516001600160a01b0390931683526020830191909152303182820152517ff695043c68d141bf7715a80c7c181a21c469846be41ff74c864e392ba7b9c8889181900360600190a16003546007546040516001600160a01b039092169181156108fc0291906000818181858888f193505050501580156104d1573d6000803e3d6000fd5b50565b6002546001600160a01b0316331461052057604051600160e51b62461bcd02815260040180806020018281038252602c81526020018061091b602c913960400191505060405180910390fd5b6000600d54600160a01b900460ff16600381111561053a57fe5b1461057957604051600160e51b62461bcd0281526004018080602001828103825260388152602001806108e36038913960400191505060405180910390fd5b60146008544303116105d55760408051600160e51b62461bcd02815260206004820181905260248201527f477261636520706572696f64206973206e6f742066696e697368656420796574604482015290519081900360640190fd5b600d8054600160a01b60ff021916600160a01b179055436005556040517fee2679bc2382e067cc3dfbda872852b5b1702b359c1fd6ce272c32dae5bacabf90600090a1565b600554600d54600c5460408051600160e01b635cf4ee91028152600481019290925243909303600081810360248401529351909284926001600160a01b0390911691635cf4ee9191604480820192602092909190829003018186803b15801561068257600080fd5b505afa158015610696573d6000803e3d6000fd5b505050506040513d60208110156106ac57600080fd5b5051600a5490915081116106c557600a54600c556106cb565b600c8190555b600c549250505090565b60008054604080516020601f6002600019610100600188161502019095169490940493840181900481028201810190925282815291839183018282801561075d5780601f106107325761010080835404028352916020019161075d565b820191906000526020600020905b81548152906001019060200180831161074057829003601f168201915b505050506001838101546002808601546003870154600488018054604080516020601f6000199a851615610100029a909a01909316969096049788018290048202860182019052868552979894976001600160a01b039384169750929091169490918301828280156108105780601f106107e557610100808354040283529160200191610810565b820191906000526020600020905b8154815290600101906020018083116107f357829003601f168201915b5050505060058301546006840154600790940154929390926001600160a01b03909116915088565b600d54600160a01b900460ff1681565b6001600d54600160a01b900460ff16600381111561086257fe5b146108a157604051600160e51b62461bcd0281526004018080602001828103825260328152602001806109b56032913960400191505060405180910390fd5b600d8054600160a01b60ff021916600160a11b1790556040517f1be74661a60e254c7e358b393f2c9e8c7a90bf84248015d6b022c4c40d50893190600090a156fe546f2061637469766174652074686520636f6e747261637420796f75206d75737420626520696e2074686520477261636520506572696f644f6e6c79207468652061756374696f6e20686f7573652063616e2072756e20746869732066756e6374696f6e466f7220736563757269747920726561736f6e732c20796f75206e65656420746f207761697420746f2076616c69646174652074686520636f6e7472616374596f752063616e27742066696e616c697a65206120636f6e7472616374206265666f72652076616c69646174696f6e596f752063616e27742076616c6964617465206120636f6e7472616374206265666f72652061637469766174696e67206974a165627a7a7230582083df17e133e89b02e9525a7319b565c0acc0b4d99eff6eb432acd46d49c11588002954686520696e697469616c2070726963652073686f756c642062652067726561746572207468616e207468652072657365727665207072696365526573657276652070726963652073686f756c642062652067726561746572207468616e207a65726f2e",
  "source": "pragma solidity ^ 0.5.1;\n\nimport \"./Auction.sol\";\nimport \"./Strategy.sol\";\n\n/// @title Dutch Auction contract\n/// @author Andrea Bruno 585457\n/// @notice This contract implements the Dutch auction functionalities.\n/// @dev The following comments are written using the Solidity NatSpec Format.\ncontract DutchAuction is Auction {\n\n    /// @dev This variable identifies the block number at the moment of contract deploy.\n    uint creationBlock;\n\n    /// @dev This variable identifies the block number of the winner bid.\n    uint winnerBlock;\n\n    /// @dev The reserve price decided by the seller.\n    uint reservePrice;\n\n    /// @dev The initial price decided by the seller.\n    uint initialPrice;\n\n    /// @dev The current price of the item.\n    uint actualPrice;\n\n    /// @dev To decrease the price a strategy is needed. Check the contract `Strategy` to learn more.\n    Strategy strategy;\n\n    /// @dev Those are the possible states of the auction.\n    enum State {\n        GracePeriod,\n        Active,\n        Validating,\n        Finished\n    }\n    State public state;\n\n    /// @notice This event communicate that the auction is in validation.\n    event auctionValidation();\n\n    /// @notice The (ex) constructor of the Dutch auction. See FACTORY PATTERN...\n    /// @param _itemName is a short description of what is going to be sold.\n    /// @param _reservePrice is the reserve price decided by the seller.\n    /// @param _initialPrice is the initial price decided by the seller.\n    /// @param _strategy the address of a `Strategy` contract.\n    constructor (\n        address payable _houseOwner,\n        address payable _seller,\n        string memory _itemName,\n        uint _reservePrice,\n        uint _initialPrice,\n        Strategy _strategy\n    ) public{\n        \n        require(_reservePrice > 0, \"Reserve price should be greater than zero.\");\n        require(_initialPrice > _reservePrice, \"The initial price should be greater than the reserve price\");\n        \n        // Set into the description the auction house address,\n        description.house = _houseOwner;\n        // the address of the seller,\n        description.seller = _seller;\n        // the name of the item\n        description.itemName = _itemName;\n        // the category of the Auction\n        description.category = \"Dutch\";\n        // and the block number at deploy time\n        description.deployBlock = block.number;\n\n\n        //Set state into \"grace period\"\n        state = State.GracePeriod;\n\n        reservePrice = _reservePrice;\n        initialPrice = _initialPrice;\n        actualPrice = _initialPrice;\n        strategy = _strategy;\n\n        //Remember the block number at the moment of contract deploy.\n        creationBlock = block.number;\n    }\n\n    /// @notice This function will activate the auction.\n    /// @dev Only the seller can invoke it.\n    function activateAuction() public onlyHouse {\n\n        // In order to activate the auction we need to be in the \"grace period\"\n        require(state == State.GracePeriod, \"To activate the contract you must be in the Grace Period\");\n\n        // and also 5 minutes (20 blocks) must be elapsed.\n        require(block.number - creationBlock > 20, \"Grace period is not finished yet\");\n\n        // Set the current state to \"Active\".\n        state = State.Active;\n\n        // Set into the description the starting block of the auction.\n        description.startBlock = block.number;\n\n        // Communicate that the auction is started.\n        emit auctionStarted();\n    }\n\n    /// @notice This function will update the price.\n    /// @dev Since it is public, the gas will be spent by the people willing to know the current price.\n    /// @return The updated current price.\n    function getActualPrice() public returns(uint) {\n\n        // Compute the delta between the block in which the auction is started and the actual one.\n        uint deltaBlocks = description.startBlock - block.number;\n\n        // Let the strategy compute the price.\n        uint tmp = strategy.getPrice(actualPrice, -deltaBlocks);\n\n        // If the price computed is smaller than the reserve price\n        // set the actual price to the reserve price\n        // otherwise everything is fine.\n        if (tmp <= reservePrice) {\n            actualPrice = reservePrice;\n        } else {\n            actualPrice = tmp;\n        }\n\n        return actualPrice;\n    }\n\n    /// @notice Use this function to make a bid.\n    /// @dev The bidder should send a value greater or equal than the actual price.\n    /// @dev Finally, the auction passes in a \"validation\" state, to avoid inconsistencies due to forks on the blockchain\n    function bid() public payable {\n\n        // To maka a bid the auction need to be active.\n        require(state == State.Active, \"This contract is not active yet\");\n\n        // The bidder should send an appropriate value.\n        require(msg.value >= getActualPrice(), \"The value sent is not sufficient\");\n\n        description.winnerAddress = msg.sender;\n        description.winnerBid = msg.value;\n\n        winnerBlock = block.number;\n\n        //Activate the validation\n        validateAuction();\n    }\n\n\n\n    /// @dev This function allow to pass into a \"validation\" state.\n    function validateAuction() internal {\n        require(state == State.Active, \"You can't validate a contract before activating it\");\n        state = State.Validating;\n        emit auctionValidation();\n    }\n\n\n    /// @notice The following function finalize the contract and send the ether to the seller of the item.\n    /// @dev The security pattern Checks-Effects-Interaction is respected.\n    function finalize() public onlyHouse {\n        require(state == State.Validating, \"You can't finalize a contract before validation\");\n        require(block.number - winnerBlock > 12, \"For security reasons, you need to wait to validate the contract\");\n\n        state = State.Finished;\n\n        // Emit the event on the blockchain\n        emit auctionFinished(description.winnerAddress, description.winnerBid, address(this).balance);\n\n        // Transfer the money to the seller\n        description.seller.transfer(description.winnerBid);\n    }\n}",
  "sourcePath": "/Users/andrea/Desktop/workspace/DAPP_SmartAuction/contracts/DutchAuction.sol",
  "compiler": {
    "name": "solc",
    "version": "0.5.8+commit.23d335f2.Emscripten.clang"
  },
  "schemaVersion": "3.0.11",
  "updatedAt": "2019-07-09T16:17:58.181Z",
  "devdoc": {
    "author": "Andrea Bruno 585457",
    "details": "The following comments are written using the Solidity NatSpec Format.",
    "methods": {
      "activateAuction()": {
        "details": "Only the seller can invoke it."
      },
      "bid()": {
        "details": "The bidder should send a value greater or equal than the actual price.Finally, the auction passes in a \"validation\" state, to avoid inconsistencies due to forks on the blockchain"
      },
      "constructor": {
        "params": {
          "_initialPrice": "is the initial price decided by the seller.",
          "_itemName": "is a short description of what is going to be sold.",
          "_reservePrice": "is the reserve price decided by the seller.",
          "_strategy": "the address of a `Strategy` contract."
        }
      },
      "finalize()": {
        "details": "The security pattern Checks-Effects-Interaction is respected."
      },
      "getActualPrice()": {
        "details": "Since it is public, the gas will be spent by the people willing to know the current price.",
        "return": "The updated current price."
      }
    },
    "title": "Dutch Auction contract"
  },
  "userdoc": {
    "methods": {
      "activateAuction()": {
        "notice": "This function will activate the auction."
      },
      "bid()": {
        "notice": "Use this function to make a bid."
      },
      "constructor": "The (ex) constructor of the Dutch auction. See FACTORY PATTERN...",
      "finalize()": {
        "notice": "The following function finalize the contract and send the ether to the seller of the item."
      },
      "getActualPrice()": {
        "notice": "This function will update the price."
      }
    },
    "notice": "This contract implements the Dutch auction functionalities."
  }
}