{
  "contractName": "FastStrategy",
  "abi": [
    {
      "constant": true,
      "inputs": [
        {
          "name": "_actualPrice",
          "type": "uint256"
        },
        {
          "name": "_deltaBlocks",
          "type": "uint256"
        }
      ],
      "name": "getPrice",
      "outputs": [
        {
          "name": "",
          "type": "uint256"
        }
      ],
      "payable": false,
      "stateMutability": "view",
      "type": "function"
    }
  ],
  "bytecode": "0x608060405234801561001057600080fd5b5060ac8061001f6000396000f3fe6080604052348015600f57600080fd5b506004361060285760003560e01c80635cf4ee9114602d575b600080fd5b604d60048036036040811015604157600080fd5b5080359060200135605f565b60408051918252519081900360200190f35b6000600282028303838111156077576000915050607a565b90505b9291505056fea165627a7a72305820b54fae94950f221ceef788af40b7ca82f1a476d03d84515cb8bf6d73cb65ef880029",
  "source": "pragma solidity ^ 0.5.1;\n\n\n/// @title Strategy contract\n/// @author Andrea Bruno 585457\n/// @notice This abstract contract describes what a strategy should implement.\n/// @dev The following comments are written using the Solidity NatSpec Format.\ncontract Strategy {\n\n    /// @notice This function compute the price.\n    /// @param _actualPrice is the current price of the item\n    /// @param _deltaBlocks the blocks elapsed.\n    /// @return The updated current price.\n    function getPrice(uint _actualPrice, uint _deltaBlocks) public view returns(uint);\n}\n\n\n\n\n/// @title NormalStrategy contract\n/// @notice This contract implement a linear decrease function.\n/// @dev This contract extends `Strategy`\ncontract NormalStrategy is Strategy {\n\n    function getPrice(uint _actualPrice, uint _deltaBlocks) public view returns(uint) {\n        uint tmp = _actualPrice - _deltaBlocks;\n\n        //in case of underflow\n        if (tmp > _actualPrice) return 0;\n        else return tmp;\n    }\n}\n\n\n\n\n\n/// @title FastStrategy contract\n/// @notice This contract implement a linear decrease function, twice faster than `NormalStrategy`\n/// @dev This contract extends `Strategy`\ncontract FastStrategy is Strategy {\n\n    function getPrice(uint _actualPrice, uint _deltaBlocks) public view returns(uint) {\n        uint tmp = _actualPrice - (2 * _deltaBlocks);\n\n        //in case of underflow\n        if (tmp > _actualPrice) return 0;\n        else return tmp;\n    }\n}\n\n\n\n\n\n/// @title SlowStrategy contract\n/// @notice This contract implement a linear decrease function, twice slower than `NormalStrategy`\n/// @dev This contract extends `Strategy`\ncontract SlowStrategy is Strategy {\n\n    function getPrice(uint _actualPrice, uint _deltaBlocks) public view returns(uint) {\n        uint tmp = _actualPrice - (_deltaBlocks / 2);\n\n        //in case of underflow\n        if (tmp > _actualPrice) return 0;\n        else return tmp;\n    }\n}\n",
  "sourcePath": "/Users/andrea/Desktop/workspace/DAPP_SmartAuction/contracts/Strategy.sol",
  "compiler": {
    "name": "solc",
    "version": "0.5.8+commit.23d335f2.Emscripten.clang"
  },
  "schemaVersion": "3.0.11",
  "updatedAt": "2019-07-04T15:31:57.864Z",
  "devdoc": {
    "details": "This contract extends `Strategy`",
    "methods": {},
    "title": "FastStrategy contract"
  },
  "userdoc": {
    "methods": {},
    "notice": "This contract implement a linear decrease function, twice faster than `NormalStrategy`"
  }
}