{
  "contractName": "GenerateBid",
  "abi": [
    {
      "constant": false,
      "inputs": [
        {
          "name": "_bidValue",
          "type": "uint256"
        }
      ],
      "name": "generateBid",
      "outputs": [
        {
          "name": "",
          "type": "uint256"
        },
        {
          "name": "",
          "type": "bytes32"
        },
        {
          "name": "",
          "type": "bytes32"
        }
      ],
      "payable": false,
      "stateMutability": "nonpayable",
      "type": "function"
    }
  ],
  "bytecode": "0x6080604052348015600f57600080fd5b5060ef8061001e6000396000f3fe6080604052348015600f57600080fd5b506004361060285760003560e01c80635834a40914602d575b600080fd5b604760048036036020811015604157600080fd5b50356065565b60408051938452602084019290925282820152519081900360600190f35b60008190556040805142602080830191909152825180830382018152828401845280519082012060018190556060830185905260808084018290528451808503909101815260a090930190935281519101206002819055919290919056fea165627a7a72305820d25111471a2d3dc2288e837a9f05f32b119ae0159c86656a0f730d9d150a36cf0029",
  "source": "pragma solidity ^ 0.5.1;\n\n/// @title GenerateBid contract\n/// @author Andrea Bruno 585457\n/// @notice This contract helps people in making bids. If deployed locally, no gas is required.\n/// @dev The following comments are written using the Solidity NatSpec Format.\ncontract GenerateBid {\n\n    // Every bid is composed by one value, one nonce and one hash.\n    struct Bid {\n        uint value;\n        bytes32 nonce;\n        bytes32 hash;\n    }\n\n    Bid bid;\n\n    /// @notice This function generates the nonce and the hash needed in the Vickrey Auction.\n    /// @param _bidValue is the desired bid.\n    function generateBid(uint _bidValue) public returns(uint,bytes32,bytes32) {\n        bid.value = _bidValue;\n        bid.nonce = keccak256(abi.encodePacked(block.timestamp));\n        bid.hash = keccak256(abi.encodePacked(_bidValue, bid.nonce));\n        return(bid.value, bid.nonce, bid.hash);\n    }\n}\n",
  "sourcePath": "/Users/andrea/Desktop/workspace/DAPP_SmartAuction/contracts/GenerateBid.sol",
  "compiler": {
    "name": "solc",
    "version": "0.5.8+commit.23d335f2.Emscripten.clang"
  },
  "schemaVersion": "3.0.11",
  "updatedAt": "2019-06-27T16:07:40.186Z",
  "devdoc": {
    "author": "Andrea Bruno 585457",
    "details": "The following comments are written using the Solidity NatSpec Format.",
    "methods": {
      "generateBid(uint256)": {
        "params": {
          "_bidValue": "is the desired bid."
        }
      }
    },
    "title": "GenerateBid contract"
  },
  "userdoc": {
    "methods": {
      "generateBid(uint256)": {
        "notice": "This function generates the nonce and the hash needed in the Vickrey Auction."
      }
    },
    "notice": "This contract helps people in making bids. If deployed locally, no gas is required."
  }
}