{
  "contractName": "VickreyAuction",
  "abi": [
    {
      "constant": true,
      "inputs": [],
      "name": "min_deposit",
      "outputs": [
        {
          "name": "",
          "type": "uint256"
        }
      ],
      "payable": false,
      "stateMutability": "view",
      "type": "function"
    },
    {
      "constant": true,
      "inputs": [],
      "name": "description",
      "outputs": [
        {
          "name": "category",
          "type": "string"
        },
        {
          "name": "house",
          "type": "address"
        },
        {
          "name": "seller",
          "type": "address"
        },
        {
          "name": "itemName",
          "type": "string"
        },
        {
          "name": "startBlock",
          "type": "uint256"
        },
        {
          "name": "winnerAddress",
          "type": "address"
        },
        {
          "name": "winnerBid",
          "type": "uint256"
        }
      ],
      "payable": false,
      "stateMutability": "view",
      "type": "function"
    },
    {
      "constant": true,
      "inputs": [],
      "name": "phase",
      "outputs": [
        {
          "name": "",
          "type": "uint8"
        }
      ],
      "payable": false,
      "stateMutability": "view",
      "type": "function"
    },
    {
      "inputs": [
        {
          "name": "_houseOwner",
          "type": "address"
        },
        {
          "name": "_seller",
          "type": "address"
        },
        {
          "name": "_itemName",
          "type": "string"
        },
        {
          "name": "_reservePrice",
          "type": "uint256"
        },
        {
          "name": "_min_deposit",
          "type": "uint256"
        },
        {
          "name": "_commitment_len",
          "type": "uint256"
        },
        {
          "name": "_withdrawal_len",
          "type": "uint256"
        },
        {
          "name": "_opening_len",
          "type": "uint256"
        }
      ],
      "payable": false,
      "stateMutability": "nonpayable",
      "type": "constructor"
    },
    {
      "anonymous": false,
      "inputs": [],
      "name": "withdrawalStarted",
      "type": "event"
    },
    {
      "anonymous": false,
      "inputs": [],
      "name": "openingStarted",
      "type": "event"
    },
    {
      "anonymous": false,
      "inputs": [
        {
          "indexed": false,
          "name": "bidder",
          "type": "address"
        },
        {
          "indexed": false,
          "name": "value",
          "type": "uint256"
        },
        {
          "indexed": false,
          "name": "seller",
          "type": "address"
        },
        {
          "indexed": false,
          "name": "val",
          "type": "uint256"
        }
      ],
      "name": "withdrawalExecuted",
      "type": "event"
    },
    {
      "anonymous": false,
      "inputs": [],
      "name": "auctionStarted",
      "type": "event"
    },
    {
      "anonymous": false,
      "inputs": [
        {
          "indexed": false,
          "name": "winnerAddress",
          "type": "address"
        },
        {
          "indexed": false,
          "name": "winnerBid",
          "type": "uint256"
        },
        {
          "indexed": false,
          "name": "surplusFounds",
          "type": "uint256"
        }
      ],
      "name": "auctionFinished",
      "type": "event"
    },
    {
      "constant": false,
      "inputs": [],
      "name": "activateAuction",
      "outputs": [],
      "payable": false,
      "stateMutability": "nonpayable",
      "type": "function"
    },
    {
      "constant": false,
      "inputs": [
        {
          "name": "_bidHash",
          "type": "bytes32"
        }
      ],
      "name": "bid",
      "outputs": [],
      "payable": true,
      "stateMutability": "payable",
      "type": "function"
    },
    {
      "constant": false,
      "inputs": [],
      "name": "startWithdrawal",
      "outputs": [],
      "payable": false,
      "stateMutability": "nonpayable",
      "type": "function"
    },
    {
      "constant": false,
      "inputs": [],
      "name": "withdrawal",
      "outputs": [],
      "payable": false,
      "stateMutability": "nonpayable",
      "type": "function"
    },
    {
      "constant": false,
      "inputs": [],
      "name": "startOpening",
      "outputs": [],
      "payable": false,
      "stateMutability": "nonpayable",
      "type": "function"
    },
    {
      "constant": false,
      "inputs": [
        {
          "name": "_nonce",
          "type": "bytes32"
        }
      ],
      "name": "open",
      "outputs": [],
      "payable": true,
      "stateMutability": "payable",
      "type": "function"
    },
    {
      "constant": false,
      "inputs": [],
      "name": "finalize",
      "outputs": [],
      "payable": false,
      "stateMutability": "nonpayable",
      "type": "function"
    }
  ],
  "bytecode": "0x60806040526011805460ff191660011790553480156200001e57600080fd5b50604051620016d8380380620016d883398101806040526101008110156200004557600080fd5b81516020830151604084018051929491938201926401000000008111156200006c57600080fd5b820160208101848111156200008057600080fd5b81516401000000008111828201871017156200009b57600080fd5b5050602082015160408301516060840151608085015160a0909501519396509194509290918462000118576040517f08c379a000000000000000000000000000000000000000000000000000000000815260040180806020018281038252602a815260200180620016ae602a913960400191505060405180910390fd5b8484101562000173576040517f08c379a0000000000000000000000000000000000000000000000000000000008152600401808060200182810382526034815260200180620015de6034913960400191505060405180910390fd5b60008311620001ce576040517f08c379a0000000000000000000000000000000000000000000000000000000008152600401808060200182810382526035815260200180620016126035913960400191505060405180910390fd5b6000821162000229576040517f08c379a0000000000000000000000000000000000000000000000000000000008152600401808060200182810382526035815260200180620016796035913960400191505060405180910390fd5b6000811162000284576040517f08c379a0000000000000000000000000000000000000000000000000000000008152600401808060200182810382526032815260200180620016476032913960400191505060405180910390fd5b600180546001600160a01b03808b166001600160a01b03199283161790925560028054928a16929091169190911790558551620002c99060039060208901906200033d565b506040805180820190915260078082527f5669636b72657900000000000000000000000000000000000000000000000000602090920191825262000310916000916200033d565b506007805460ff19169055600994909455600a92909255600b55600c55600d5550504360085550620003e2565b828054600181600116156101000203166002900490600052602060002090601f016020900481019282601f106200038057805160ff1916838001178555620003b0565b82800160010185558215620003b0579182015b82811115620003b057825182559160200191906001019062000393565b50620003be929150620003c2565b5090565b620003df91905b80821115620003be5760008155600101620003c9565b90565b6111ec80620003f26000396000f3fe6080604052600436106100915760003560e01c8063b1c9fe6e11610059578063b1c9fe6e14610252578063bc2f8dd81461028b578063d3b3f73a146102a0578063d4e93292146102bd578063fef06efa146102d257610091565b80634bb278f3146100965780634d5f811e146100ad578063605fed87146100d45780637284e416146100e9578063957bb1e014610235575b600080fd5b3480156100a257600080fd5b506100ab6102e7565b005b3480156100b957600080fd5b506100c2610528565b60408051918252519081900360200190f35b3480156100e057600080fd5b506100ab61052e565b3480156100f557600080fd5b506100fe610669565b6040518080602001886001600160a01b03166001600160a01b03168152602001876001600160a01b03166001600160a01b0316815260200180602001868152602001856001600160a01b03166001600160a01b0316815260200184815260200183810383528a818151815260200191508051906020019080838360005b8381101561019357818101518382015260200161017b565b50505050905090810190601f1680156101c05780820380516001836020036101000a031916815260200191505b50838103825287518152875160209182019189019080838360005b838110156101f35781810151838201526020016101db565b50505050905090810190601f1680156102205780820380516001836020036101000a031916815260200191505b50995050505050505050505060405180910390f35b6100ab6004803603602081101561024b57600080fd5b50356107c8565b34801561025e57600080fd5b50610267610993565b6040518082600481111561027757fe5b60ff16815260200191505060405180910390f35b34801561029757600080fd5b506100ab61099c565b6100ab600480360360208110156102b657600080fd5b5035610abd565b3480156102c957600080fd5b506100ab610cfc565b3480156102de57600080fd5b506100ab610eee565b6001546001600160a01b0316331461033357604051600160e51b62461bcd02815260040180806020018281038252602c8152602001806110a5602c913960400191505060405180910390fd5b600360075460ff16600481111561034657fe5b1461038557604051600160e51b62461bcd02815260040180806020018281038252602e8152602001806110f7602e913960400191505060405180910390fd5b600d546008544303116103cc57604051600160e51b62461bcd0281526004018080602001828103825260228152602001806111766022913960400191505060405180910390fd5b600e546001600160a01b03161561047457600e54600580546001600160a01b0319166001600160a01b0390921691821790556010546006819055600f5460405191900380156108fc02916000818181858888f19350505050158015610435573d6000803e3d6000fd5b506002546006546040516001600160a01b039092169181156108fc0291906000818181858888f19350505050158015610472573d6000803e3d6000fd5b505b60078054600460ff19909116179055600554600654604080516001600160a01b0390931683526020830191909152303182820181905290517364db1b94a0304e4c27de2e758b2f962d09dfe503927ff695043c68d141bf7715a80c7c181a21c469846be41ff74c864e392ba7b9c888919081900360600190a16040516001600160a01b0383169082156108fc029083906000818181858888f19350505050158015610523573d6000803e3d6000fd5b505050565b600a5481565b6001546001600160a01b0316331461057a57604051600160e51b62461bcd02815260040180806020018281038252602c8152602001806110a5602c913960400191505060405180910390fd5b600060075460ff16600481111561058d57fe5b146105cc57604051600160e51b62461bcd02815260040180806020018281038252603881526020018061106d6038913960400191505060405180910390fd5b60146008544303116106285760408051600160e51b62461bcd02815260206004820181905260248201527f477261636520706572696f64206973206e6f742066696e697368656420796574604482015290519081900360640190fd5b6007805460ff191660011790554360048190556008556040517fee2679bc2382e067cc3dfbda872852b5b1702b359c1fd6ce272c32dae5bacabf90600090a1565b60008054604080516020601f600260001961010060018816150201909516949094049384018190048102820181019092528281529183918301828280156106f15780601f106106c6576101008083540402835291602001916106f1565b820191906000526020600020905b8154815290600101906020018083116106d457829003601f168201915b505050600180850154600280870154600388018054604080516020601f60001999851615610100029990990190931695909504968701829004820285018201905285845297986001600160a01b03948516989290941696509294509092908301828280156107a05780601f10610775576101008083540402835291602001916107a0565b820191906000526020600020905b81548152906001019060200180831161078357829003601f168201915b5050505060048301546005840154600690940154929390926001600160a01b03909116915087565b600160075460ff1660048111156107db57fe5b146108305760408051600160e51b62461bcd02815260206004820181905260248201527f436f6d6d69746d656e74207068617365206e6f74207374617274656420796574604482015290519081900360640190fd5b600b546008544303111561088e5760408051600160e51b62461bcd02815260206004820152601960248201527f436f6d6d69746d656e7420706861736520697320656e64656400000000000000604482015290519081900360640190fd5b600a543410156108e85760408051600160e51b62461bcd02815260206004820181905260248201527f5468652076616c75652073656e74206973206e6f742073756666696369656e74604482015290519081900360640190fd5b336000908152601260205260409020541561094d5760408051600160e51b62461bcd02815260206004820181905260248201527f596f75206861766520616c7265616479207375626d6974746564206120626964604482015290519081900360640190fd5b610955611045565b604080820192835234606083019081523360009081526012602090815292902083518155919092015160018201559151600283015551600390910155565b60075460ff1681565b6001546001600160a01b031633146109e857604051600160e51b62461bcd02815260040180806020018281038252602c8152602001806110a5602c913960400191505060405180910390fd5b600160075460ff1660048111156109fb57fe5b14610a3a57604051600160e51b62461bcd02815260040180806020018281038252602c815260200180611125602c913960400191505060405180910390fd5b600b54600854430311610a8157604051600160e51b62461bcd0281526004018080602001828103825260258152602001806111516025913960400191505060405180910390fd5b6007805460ff19166002179055436008556040517f06179f52469b624307d1134ccac6737f9f8297dc742b397eb14de0530dd596fa90600090a1565b600360075460ff166004811115610ad057fe5b14610b255760408051600160e51b62461bcd02815260206004820152601d60248201527f4f70656e696e67207068617365206e6f74207374617274656420796574000000604482015290519081900360640190fd5b600d5460085443031115610b835760408051600160e51b62461bcd02815260206004820152601660248201527f4f70656e696e6720706861736520697320656e64656400000000000000000000604482015290519081900360640190fd5b33600090815260126020908152604091829020600201548251348184015280840185905283518082038501815260609091019093528251929091019190912014610c075760408051600160e51b62461bcd02815260206004820152600a6024820152600160b31b690aee4dedcce40d0c2e6d02604482015290519081900360640190fd5b33600081815260126020526040808220600301805490839055905190929183156108fc02918491818181858888f19350505050158015610c4b573d6000803e3d6000fd5b5033600090815260126020526040902034815560010182905560115460ff1615610c9a57600e80546001600160a01b0319163317905534600f556009546010556011805460ff19169055610cf8565b600f54341115610cdf57600f546010819055600e54610cc4916001600160a01b039091169061100f565b600e80546001600160a01b0319163317905534600f55610cf8565b601054341115610cee57346010555b610cf8333461100f565b5050565b600260075460ff166004811115610d0f57fe5b14610d645760408051600160e51b62461bcd02815260206004820181905260248201527f5769746864726177616c207068617365206e6f74207374617274656420796574604482015290519081900360640190fd5b600c5460085443031115610dc25760408051600160e51b62461bcd02815260206004820152601960248201527f5769746864726177616c20706861736520697320656e64656400000000000000604482015290519081900360640190fd5b33600090815260126020526040902060030154610e1357604051600160e51b62461bcd0281526004018080602001828103825260268152602001806110d16026913960400191505060405180910390fd5b33600081815260126020908152604080832060030180549390556002805482519586529084049285018390526001600160a01b0316848201529181900360608401819052915190927fe77c6e79e6e29c0d19961bf68269998b3c16b233806a74107f327a31c5eca329919081900360800190a16002546040516001600160a01b039091169082156108fc029083906000818181858888f19350505050158015610ec0573d6000803e3d6000fd5b50604051339083156108fc029084906000818181858888f19350505050158015610523573d6000803e3d6000fd5b6001546001600160a01b03163314610f3a57604051600160e51b62461bcd02815260040180806020018281038252602c8152602001806110a5602c913960400191505060405180910390fd5b600260075460ff166004811115610f4d57fe5b14610f8c57604051600160e51b62461bcd0281526004018080602001828103825260298152602001806111986029913960400191505060405180910390fd5b600c54600854430311610fd357604051600160e51b62461bcd0281526004018080602001828103825260258152602001806111516025913960400191505060405180910390fd5b6007805460ff19166003179055436008556040517fe884e87cca623860f1ac029c5df020e7b7ebad72eab657701673da4cf3e9046190600090a1565b6040516001600160a01b0383169082156108fc029083906000818181858888f19350505050158015610523573d6000803e3d6000fd5b6040805160808101825260008082526020820181905291810182905260608101919091529056fe546f2061637469766174652074686520636f6e747261637420796f75206d75737420626520696e2074686520477261636520506572696f644f6e6c79207468652061756374696f6e20686f7573652063616e2072756e20746869732066756e6374696f6e596f7520646f6e2774206861766520616e79206465706f73697420746f207769746864726177596f752063616e27742066696e616c697a652074686520636f6e7472616374206265666f7265206f70656e696e67596f752063616e2774207374617274207769746864726177616c206265666f726520636f6d6d69746d656e74436f6d6d69746d656e7420706572696f64206973206e6f742066696e6973686564207965744f70656e696e6720706572696f64206973206e6f742066696e697368656420796574596f752063616e2774207374617274206f70656e696e67206265666f7265207769746864726177616ca165627a7a72305820dcd3d5f5d6174d72b4bc5fe41dae8d490508afad098eadf2a93402c287cb0a920029546865206465706f7369742073686f756c642062652067726561746572207468616e207468652072657365727665207072696365546865206c656e676874206f6620636f6d6d69746d656e742073686f756c642062652067726561746572207468616e207a65726f2e546865206c656e676874206f66206f70656e696e672073686f756c642062652067726561746572207468616e207a65726f2e546865206c656e676874206f66207769746864726177616c2073686f756c642062652067726561746572207468616e207a65726f2e526573657276652070726963652073686f756c642062652067726561746572207468616e207a65726f2e",
  "source": "pragma solidity ^ 0.5.1;\n\nimport \"./Auction.sol\";\n\n/// @title Vickrey Auction contract\n/// @author Andrea Bruno 585457\n/// @notice This contract implements the Vickrey auction functionalities.\n/// @dev The following comments are written using the Solidity NatSpec Format.\ncontract VickreyAuction is Auction {\n\n    /// @dev Those are the phases of the auction.\n    enum Phase {\n        GracePeriod,\n        Commitment,\n        Withdrawal,\n        Opening,\n        Finished\n    }\n    Phase public phase;\n\n    /// @dev This variable contains the block number of the current phase.\n    uint startPhaseBlock;\n\n    /// @dev The reserve price decided by the seller\n    uint reservePrice;\n\n    /// @dev The minumum deposit decided by the seller\n    uint public min_deposit;\n\n    /// @dev The commitment phase lenght (number of blocks)\n    uint commitment_len;\n\n    /// @dev The withdrawal phase lenght (number of blocks)\n    uint withdrawal_len;\n\n    /// @dev The opening phase lenght (number of blocks)\n    uint opening_len;\n    /// @dev The address of the highest bidder (see `open` function)\n    address payable highestBidder;\n\n    /// @dev The value of the highest bid\n    uint highestBid;\n\n    /// @dev The value of the second highest bid\n    uint secondHighestBid;\n\n    /// @dev This boolean is to understand if during the opening is the first bid opened\n    bool firstOpen = true;\n\n    ///@dev The structure of a Bid.\n    struct Bid {\n        // An integer value of the bid\n        uint value;\n\n        // A nonce generated by the bidder\n        bytes32 nonce;\n\n        // The hash of the tuple <value,nonce>\n        bytes32 hash;\n\n        // The deposit given during the bid\n        uint deposit;\n    }\n\n    /// @dev This mapping buond the address of the bidder to his bid\n    mapping(address => Bid) bids;\n\n    /// @notice This event communicate the beginning of the Withdrawal phase.\n    event withdrawalStarted();\n\n    /// @notice This event communicate the beginning of the Opening phase.\n    event openingStarted();\n\n\n    /// @notice This event communicate that a bidder has been refunded by half of his deposit.\n    /// @notice The other half is sent to the seller of the item.\n    /// @param bidder is the address of the bidder\n    /// @param value is the value sent to the bidder\n    /// @param seller is address of the seller\n    /// @param val is the value sent to the seller\n    event withdrawalExecuted(address bidder, uint value, address seller, uint val);\n\n    /// @notice The constructor of the Dutch auction.\n    /// @dev The `msg.sender` will be the seller.\n    /// @param _itemName is a short description of what is going to be sold.\n    /// @param _reservePrice is the reserve price decided by the seller.\n    /// @param _min_deposit is the minimum deposit decided by the seller.\n    /// @param _commitment_len the lenght of the commitment phase.\n    /// @param _withdrawal_len the lenght of the withdrawal phase.\n    /// @param _opening_len the lenght of the opening phase.\n    constructor(\n        address payable _houseOwner,\n        address payable _seller,\n        string memory _itemName,\n        uint _reservePrice,\n        uint _min_deposit,\n        uint _commitment_len,\n        uint _withdrawal_len,\n        uint _opening_len\n    ) public {\n\n        // Before deplying the contract a few controls are needed.\n        require(_reservePrice > 0, \"Reserve price should be greater than zero.\");\n        require(_min_deposit >= _reservePrice, \"The deposit should be greater than the reserve price\");\n        require(_commitment_len > 0, \"The lenght of commitment should be greater than zero.\");\n        require(_withdrawal_len > 0, \"The lenght of withdrawal should be greater than zero.\");\n        require(_opening_len > 0, \"The lenght of opening should be greater than zero.\");\n\n        // Set into the description the auction house address,\n        description.house = _houseOwner;\n        // the address of the seller,\n        description.seller = _seller;\n        // the name of the item\n        description.itemName = _itemName;\n        // and the category of the Auction\n        description.category = \"Vickrey\";\n\n        // Set state into \"grace period\"\n        phase = Phase.GracePeriod;\n\n        reservePrice = _reservePrice;\n        min_deposit = _min_deposit;\n        commitment_len = _commitment_len;\n        withdrawal_len = _withdrawal_len;\n        opening_len = _opening_len;\n\n        // Update the block number of the current phase.\n        startPhaseBlock = block.number;\n    }\n\n    /// @dev This modifier allow to invoke the function olny during the Commitment phase.\n    modifier duringCommitment {\n        require(phase == Phase.Commitment, \"Commitment phase not started yet\");\n        require((block.number - startPhaseBlock) <= commitment_len, \"Commitment phase is ended\");\n        _;\n    }\n\n    /// @dev This modifier allow to invoke the function olny during the Withdrawal phase.\n    modifier duringWithdrawal {\n        require(phase == Phase.Withdrawal, \"Withdrawal phase not started yet\");\n        require((block.number - startPhaseBlock) <= withdrawal_len, \"Withdrawal phase is ended\");\n        _;\n    }\n\n    /// @dev This modifier allow to invoke the function olny during the Opening phase.\n    modifier duringOpening {\n        require(phase == Phase.Opening, \"Opening phase not started yet\");\n        require((block.number - startPhaseBlock) <= opening_len, \"Opening phase is ended\");\n        _;\n    }\n\n\n\n    /// @notice This function will activate the auction.\n    /// @dev Only the seller can invoke it.\n    function activateAuction() public onlyHouse {\n\n        // In order to activate the auction we need to be in the \"grace period\"\n        require(phase == Phase.GracePeriod, \"To activate the contract you must be in the Grace Period\");\n        // and also 5 minutes (20 blocks) must be elapsed.\n        require(block.number - startPhaseBlock > 20, \"Grace period is not finished yet\");\n\n        // Set the current phase to \"Commitment\".\n        phase = Phase.Commitment;\n\n        // Update the start block into the descritpion\n        description.startBlock = block.number;\n        // and also the start phase block\n        startPhaseBlock = block.number;\n\n        // Communicate that the auction is started.\n        emit auctionStarted();\n    }\n\n    ///@notice This function allow people to make bid.\n    ///@notice Note that a bid will be taken into account if the value sent is >= the minimum deposit.\n    ///@dev This function can be invoked only during the commitment phase.\n    ///@param _bidHash this is the hash of the tuple <value,nonce>. See `GenerateBid` contract for more info.\n    function bid(bytes32 _bidHash) public duringCommitment payable {\n\n        // The bidder should send an appropriate value.\n        require(msg.value >= min_deposit, \"The value sent is not sufficient\");\n        // The bidder should not be able to send another bid.\n        require(bids[msg.sender].value == 0, \"You have already submitted a bid\");\n\n        // Create a temporary bid\n        Bid memory tmp_bid;\n        tmp_bid.hash = _bidHash;\n        tmp_bid.deposit = msg.value;\n\n        // Save this bid into the mapping called `bids`\n        bids[msg.sender] = tmp_bid;\n    }\n\n    ///@notice This function start the withdrawal phase.\n    ///@dev This function can be invoked only by the seller.\n    function startWithdrawal() public onlyHouse {\n        require(phase == Phase.Commitment, \"You can't start withdrawal before commitment\");\n        require((block.number - startPhaseBlock) > commitment_len, \"Commitment period is not finished yet\");\n\n        phase = Phase.Withdrawal;\n        startPhaseBlock = block.number;\n\n        // Communicate that the Withdrawal phase is started.\n        emit withdrawalStarted();\n    }\n\n    ///@notice This function allow people to retire their bid.\n    ///@notice Note that only half of the deposit will be refunded.\n    ///@notice The other half goes to the seller\n    ///@dev The security pattern Checks-Effects-Interaction is respected.\n    function withdrawal() public duringWithdrawal {\n        //1. Checks\n        require(bids[msg.sender].deposit > 0, \"You don't have any deposit to withdraw\");\n\n        uint bidderRefund = bids[msg.sender].deposit / 2;\n        uint sellerRefund = bids[msg.sender].deposit - bidderRefund;\n\n        //2. Effects\n        bids[msg.sender].deposit = 0;\n        emit withdrawalExecuted(msg.sender, bidderRefund, description.seller, sellerRefund);\n\n        //3. Interaction\n        description.seller.transfer(sellerRefund);\n        msg.sender.transfer(bidderRefund);\n    }\n\n    ///@notice This function activate the Opening phase\n    ///@dev This function can be invoked only by the seller.\n    function startOpening() public onlyHouse {\n        require(phase == Phase.Withdrawal, \"You can't start opening before withdrawal\");\n        require((block.number - startPhaseBlock) > withdrawal_len, \"Commitment period is not finished yet\");\n\n        phase = Phase.Opening;\n        startPhaseBlock = block.number;\n\n        // Communicate that the Opening phase is started.\n        emit openingStarted();\n    }\n\n    ///@notice This function allow people to open their bid.\n    ///@param _nonce is the nonce of the bid previously generated.\n    function open(bytes32 _nonce) public duringOpening payable {\n        // Control the correctness of the bid\n        require(keccak256(abi.encodePacked(msg.value, _nonce)) == bids[msg.sender].hash, \"Wrong hash\");\n\n        // If the `msg.sender` has been honest, then refund him with his deposit\n        uint deposit = bids[msg.sender].deposit;\n        bids[msg.sender].deposit = 0;\n        msg.sender.transfer(deposit);\n\n        // Update the bid status\n        bids[msg.sender].value = msg.value;\n        bids[msg.sender].nonce = _nonce;\n\n        // If it is the first opening\n        if (firstOpen) {\n            // Update the highest bidder\n            highestBidder = msg.sender;\n            // and the bid\n            highestBid = msg.value;\n\n            //if there is only one bid, the winner have to pay at least the reservePrice\n            secondHighestBid = reservePrice;\n\n            firstOpen = false;\n\n        // If it is NOT the first opening\n        } else {\n            // If the msg.value is more than the highest bid\n            if (msg.value > highestBid) {\n                // The highest bid becomes the second highest bid\n                secondHighestBid = highestBid;\n\n                // Now we need to refund the bidder of the (old) highest bid\n                refund(highestBidder, highestBid);\n\n                // Set the new highest bidder and its own bid\n                highestBidder = msg.sender;\n                highestBid = msg.value;\n\n            // If the msg.value is NOT more than the highest bid\n            } else {\n                // Check whether the msg.value is higher than the second highest bid\n                if (msg.value > secondHighestBid) secondHighestBid = msg.value;\n\n                // Since the current opening is not the highest we can refund the bidder\n                refund(msg.sender, msg.value);\n            }\n        }\n    }\n\n    ///@notice This function allows to refund an address\n    ///@param _dest is the destination address\n    ///@param value is the value of this refund.\n    ///@dev The function is declare internal, so no one externally can invoke it.\n    function refund(address payable _dest, uint value) internal {\n        _dest.transfer(value);\n    }\n\n\n    ///@notice This function finalize and close the contract.\n    ///@notice In case of surplus, this ether will be sent to a charity address.\n    ///@dev The function is declare internal, so no one externally can invoke it.\n    function finalize() public onlyHouse {\n        require(phase == Phase.Opening, \"You can't finalize the contract before opening\");\n        require((block.number - startPhaseBlock) > opening_len, \"Opening period is not finished yet\");\n\n        //If there is a winner (at least one bid)\n        if (highestBidder != address(0)) {\n            description.winnerAddress = highestBidder;\n            description.winnerBid = secondHighestBid;\n\n            //Refund the winner\n            highestBidder.transfer(highestBid - secondHighestBid);\n\n            //Send ehter to the seller of the item\n            description.seller.transfer(description.winnerBid);\n        }\n\n        // A random charity address\n        address payable charity = 0x64DB1B94A0304E4c27De2E758B2f962d09dFE503;\n        uint surplus = address(this).balance;\n\n        // Set the current phase to Finished\n        phase = Phase.Finished;\n        \n        // Communicate the end of the auction\n        emit auctionFinished(description.winnerAddress, description.winnerBid, surplus);\n\n        // Send the surplus to the charity address.\n        charity.transfer(surplus);\n    }\n}",
  "sourcePath": "/Users/andrea/Desktop/workspace/DAPP_SmartAuction/contracts/VickreyAuction.sol",
  "compiler": {
    "name": "solc",
    "version": "0.5.8+commit.23d335f2.Emscripten.clang"
  },
  "schemaVersion": "3.0.11",
  "updatedAt": "2019-07-01T21:30:16.801Z",
  "devdoc": {
    "author": "Andrea Bruno 585457",
    "details": "The following comments are written using the Solidity NatSpec Format.",
    "methods": {
      "activateAuction()": {
        "details": "Only the seller can invoke it."
      },
      "bid(bytes32)": {
        "details": "This function can be invoked only during the commitment phase.",
        "params": {
          "_bidHash": "this is the hash of the tuple <value,nonce>. See `GenerateBid` contract for more info."
        }
      },
      "constructor": {
        "details": "The `msg.sender` will be the seller.",
        "params": {
          "_commitment_len": "the lenght of the commitment phase.",
          "_itemName": "is a short description of what is going to be sold.",
          "_min_deposit": "is the minimum deposit decided by the seller.",
          "_opening_len": "the lenght of the opening phase.",
          "_reservePrice": "is the reserve price decided by the seller.",
          "_withdrawal_len": "the lenght of the withdrawal phase."
        }
      },
      "finalize()": {
        "details": "The function is declare internal, so no one externally can invoke it."
      },
      "open(bytes32)": {
        "params": {
          "_nonce": "is the nonce of the bid previously generated."
        }
      },
      "startOpening()": {
        "details": "This function can be invoked only by the seller."
      },
      "startWithdrawal()": {
        "details": "This function can be invoked only by the seller."
      },
      "withdrawal()": {
        "details": "The security pattern Checks-Effects-Interaction is respected."
      }
    },
    "title": "Vickrey Auction contract"
  },
  "userdoc": {
    "methods": {
      "activateAuction()": {
        "notice": "This function will activate the auction."
      },
      "bid(bytes32)": {
        "notice": "This function allow people to make bid.Note that a bid will be taken into account if the value sent is >= the minimum deposit."
      },
      "constructor": "The constructor of the Dutch auction.",
      "finalize()": {
        "notice": "This function finalize and close the contract.In case of surplus, this ether will be sent to a charity address."
      },
      "open(bytes32)": {
        "notice": "This function allow people to open their bid."
      },
      "startOpening()": {
        "notice": "This function activate the Opening phase"
      },
      "startWithdrawal()": {
        "notice": "This function start the withdrawal phase."
      },
      "withdrawal()": {
        "notice": "This function allow people to retire their bid.Note that only half of the deposit will be refunded.The other half goes to the seller"
      }
    },
    "notice": "This contract implements the Vickrey auction functionalities."
  }
}